{
  "abi": [
    {
      "inputs": [
        {
          "components": [
            {
              "internalType": "bool",
              "name": "temp",
              "type": "bool"
            }
          ],
          "internalType": "struct Machine.Seed",
          "name": "_seed",
          "type": "tuple"
        }
      ],
      "name": "create",
      "outputs": [
        {
          "components": [
            {
              "internalType": "bool",
              "name": "temp",
              "type": "bool"
            }
          ],
          "internalType": "struct Machine.State",
          "name": "",
          "type": "tuple"
        }
      ],
      "stateMutability": "pure",
      "type": "function"
    },
    {
      "inputs": [
        {
          "components": [
            {
              "internalType": "bool",
              "name": "temp",
              "type": "bool"
            }
          ],
          "internalType": "struct Machine.Image",
          "name": "_image",
          "type": "tuple"
        }
      ],
      "name": "imageHash",
      "outputs": [
        {
          "internalType": "bytes32",
          "name": "",
          "type": "bytes32"
        }
      ],
      "stateMutability": "pure",
      "type": "function"
    },
    {
      "inputs": [
        {
          "components": [
            {
              "internalType": "bool",
              "name": "temp",
              "type": "bool"
            }
          ],
          "internalType": "struct Machine.State",
          "name": "_state",
          "type": "tuple"
        }
      ],
      "name": "isTerminal",
      "outputs": [
        {
          "internalType": "bool",
          "name": "",
          "type": "bool"
        }
      ],
      "stateMutability": "pure",
      "type": "function"
    },
    {
      "inputs": [
        {
          "components": [
            {
              "internalType": "bool",
              "name": "temp",
              "type": "bool"
            }
          ],
          "internalType": "struct Machine.State",
          "name": "_state",
          "type": "tuple"
        }
      ],
      "name": "next",
      "outputs": [
        {
          "components": [
            {
              "internalType": "bool",
              "name": "temp",
              "type": "bool"
            }
          ],
          "internalType": "struct Machine.State",
          "name": "",
          "type": "tuple"
        },
        {
          "internalType": "bool",
          "name": "",
          "type": "bool"
        }
      ],
      "stateMutability": "pure",
      "type": "function"
    },
    {
      "inputs": [
        {
          "components": [
            {
              "internalType": "bool",
              "name": "temp",
              "type": "bool"
            }
          ],
          "internalType": "struct Machine.State",
          "name": "_state",
          "type": "tuple"
        }
      ],
      "name": "project",
      "outputs": [
        {
          "components": [
            {
              "internalType": "bool",
              "name": "temp",
              "type": "bool"
            }
          ],
          "internalType": "struct Machine.Image",
          "name": "",
          "type": "tuple"
        }
      ],
      "stateMutability": "pure",
      "type": "function"
    },
    {
      "inputs": [
        {
          "components": [
            {
              "internalType": "bool",
              "name": "temp",
              "type": "bool"
            }
          ],
          "internalType": "struct Machine.State",
          "name": "_state",
          "type": "tuple"
        }
      ],
      "name": "stateHash",
      "outputs": [
        {
          "internalType": "bytes32",
          "name": "",
          "type": "bytes32"
        }
      ],
      "stateMutability": "pure",
      "type": "function"
    }
  ],
  "evm": {
    "bytecode": {
      "linkReferences": {},
      "object": "6104bc610026600b82828239805160001a60731461001957fe5b30600052607381538281f3fe730000000000000000000000000000000000000000301460806040526004361061006c5760003560e01c8063032e7ced14610071578063265a3af2146100a15780638561a648146100d257806394d56a4e14610102578063acd92c5e14610132578063d14345a114610162575b600080fd5b61008b600480360381019061008691906102e0565b610192565b60405161009891906103e8565b60405180910390f35b6100bb60048036038101906100b69190610309565b61019f565b6040516100c9929190610403565b60405180910390f35b6100ec60048036038101906100e79190610309565b6101ae565b6040516100f991906103b2565b60405180910390f35b61011c60048036038101906101179190610309565b6101b5565b6040516101299190610397565b60405180910390f35b61014c60048036038101906101479190610309565b6101bc565b60405161015991906103cd565b60405180910390f35b61017c600480360381019061017791906102b7565b6101c9565b60405161018991906103b2565b60405180910390f35b61019a6101d0565b919050565b6101a76101d0565b6000915091565b6000919050565b6000919050565b6101c46101e5565b919050565b6000919050565b60405180602001604052806000151581525090565b60405180602001604052806000151581525090565b6000813590506102098161046f565b92915050565b60006020828403121561022157600080fd5b61022b602061042c565b9050600061023b848285016101fa565b60008301525092915050565b60006020828403121561025957600080fd5b610263602061042c565b90506000610273848285016101fa565b60008301525092915050565b60006020828403121561029157600080fd5b61029b602061042c565b905060006102ab848285016101fa565b60008301525092915050565b6000602082840312156102c957600080fd5b60006102d78482850161020f565b91505092915050565b6000602082840312156102f257600080fd5b600061030084828501610247565b91505092915050565b60006020828403121561031b57600080fd5b60006103298482850161027f565b91505092915050565b61033b81610459565b82525050565b61034a81610459565b82525050565b61035981610465565b82525050565b6020820160008201516103756000850182610341565b50505050565b6020820160008201516103916000850182610341565b50505050565b60006020820190506103ac6000830184610332565b92915050565b60006020820190506103c76000830184610350565b92915050565b60006020820190506103e2600083018461035f565b92915050565b60006020820190506103fd600083018461037b565b92915050565b6000604082019050610418600083018561037b565b6104256020830184610332565b9392505050565b6000604051905081810181811067ffffffffffffffff8211171561044f57600080fd5b8060405250919050565b60008115159050919050565b6000819050919050565b61047881610459565b811461048357600080fd5b5056fea26469706673582212209d59a01fc1f91d455c7a3c1617772cc6978b6aefb1cf0578e6e822c2a5d48ac364736f6c63430006080033",
      "opcodes": "PUSH2 0x4BC PUSH2 0x26 PUSH1 0xB DUP3 DUP3 DUP3 CODECOPY DUP1 MLOAD PUSH1 0x0 BYTE PUSH1 0x73 EQ PUSH2 0x19 JUMPI INVALID JUMPDEST ADDRESS PUSH1 0x0 MSTORE PUSH1 0x73 DUP2 MSTORE8 DUP3 DUP2 RETURN INVALID PUSH20 0x0 ADDRESS EQ PUSH1 0x80 PUSH1 0x40 MSTORE PUSH1 0x4 CALLDATASIZE LT PUSH2 0x6C JUMPI PUSH1 0x0 CALLDATALOAD PUSH1 0xE0 SHR DUP1 PUSH4 0x32E7CED EQ PUSH2 0x71 JUMPI DUP1 PUSH4 0x265A3AF2 EQ PUSH2 0xA1 JUMPI DUP1 PUSH4 0x8561A648 EQ PUSH2 0xD2 JUMPI DUP1 PUSH4 0x94D56A4E EQ PUSH2 0x102 JUMPI DUP1 PUSH4 0xACD92C5E EQ PUSH2 0x132 JUMPI DUP1 PUSH4 0xD14345A1 EQ PUSH2 0x162 JUMPI JUMPDEST PUSH1 0x0 DUP1 REVERT JUMPDEST PUSH2 0x8B PUSH1 0x4 DUP1 CALLDATASIZE SUB DUP2 ADD SWAP1 PUSH2 0x86 SWAP2 SWAP1 PUSH2 0x2E0 JUMP JUMPDEST PUSH2 0x192 JUMP JUMPDEST PUSH1 0x40 MLOAD PUSH2 0x98 SWAP2 SWAP1 PUSH2 0x3E8 JUMP JUMPDEST PUSH1 0x40 MLOAD DUP1 SWAP2 SUB SWAP1 RETURN JUMPDEST PUSH2 0xBB PUSH1 0x4 DUP1 CALLDATASIZE SUB DUP2 ADD SWAP1 PUSH2 0xB6 SWAP2 SWAP1 PUSH2 0x309 JUMP JUMPDEST PUSH2 0x19F JUMP JUMPDEST PUSH1 0x40 MLOAD PUSH2 0xC9 SWAP3 SWAP2 SWAP1 PUSH2 0x403 JUMP JUMPDEST PUSH1 0x40 MLOAD DUP1 SWAP2 SUB SWAP1 RETURN JUMPDEST PUSH2 0xEC PUSH1 0x4 DUP1 CALLDATASIZE SUB DUP2 ADD SWAP1 PUSH2 0xE7 SWAP2 SWAP1 PUSH2 0x309 JUMP JUMPDEST PUSH2 0x1AE JUMP JUMPDEST PUSH1 0x40 MLOAD PUSH2 0xF9 SWAP2 SWAP1 PUSH2 0x3B2 JUMP JUMPDEST PUSH1 0x40 MLOAD DUP1 SWAP2 SUB SWAP1 RETURN JUMPDEST PUSH2 0x11C PUSH1 0x4 DUP1 CALLDATASIZE SUB DUP2 ADD SWAP1 PUSH2 0x117 SWAP2 SWAP1 PUSH2 0x309 JUMP JUMPDEST PUSH2 0x1B5 JUMP JUMPDEST PUSH1 0x40 MLOAD PUSH2 0x129 SWAP2 SWAP1 PUSH2 0x397 JUMP JUMPDEST PUSH1 0x40 MLOAD DUP1 SWAP2 SUB SWAP1 RETURN JUMPDEST PUSH2 0x14C PUSH1 0x4 DUP1 CALLDATASIZE SUB DUP2 ADD SWAP1 PUSH2 0x147 SWAP2 SWAP1 PUSH2 0x309 JUMP JUMPDEST PUSH2 0x1BC JUMP JUMPDEST PUSH1 0x40 MLOAD PUSH2 0x159 SWAP2 SWAP1 PUSH2 0x3CD JUMP JUMPDEST PUSH1 0x40 MLOAD DUP1 SWAP2 SUB SWAP1 RETURN JUMPDEST PUSH2 0x17C PUSH1 0x4 DUP1 CALLDATASIZE SUB DUP2 ADD SWAP1 PUSH2 0x177 SWAP2 SWAP1 PUSH2 0x2B7 JUMP JUMPDEST PUSH2 0x1C9 JUMP JUMPDEST PUSH1 0x40 MLOAD PUSH2 0x189 SWAP2 SWAP1 PUSH2 0x3B2 JUMP JUMPDEST PUSH1 0x40 MLOAD DUP1 SWAP2 SUB SWAP1 RETURN JUMPDEST PUSH2 0x19A PUSH2 0x1D0 JUMP JUMPDEST SWAP2 SWAP1 POP JUMP JUMPDEST PUSH2 0x1A7 PUSH2 0x1D0 JUMP JUMPDEST PUSH1 0x0 SWAP2 POP SWAP2 JUMP JUMPDEST PUSH1 0x0 SWAP2 SWAP1 POP JUMP JUMPDEST PUSH1 0x0 SWAP2 SWAP1 POP JUMP JUMPDEST PUSH2 0x1C4 PUSH2 0x1E5 JUMP JUMPDEST SWAP2 SWAP1 POP JUMP JUMPDEST PUSH1 0x0 SWAP2 SWAP1 POP JUMP JUMPDEST PUSH1 0x40 MLOAD DUP1 PUSH1 0x20 ADD PUSH1 0x40 MSTORE DUP1 PUSH1 0x0 ISZERO ISZERO DUP2 MSTORE POP SWAP1 JUMP JUMPDEST PUSH1 0x40 MLOAD DUP1 PUSH1 0x20 ADD PUSH1 0x40 MSTORE DUP1 PUSH1 0x0 ISZERO ISZERO DUP2 MSTORE POP SWAP1 JUMP JUMPDEST PUSH1 0x0 DUP2 CALLDATALOAD SWAP1 POP PUSH2 0x209 DUP2 PUSH2 0x46F JUMP JUMPDEST SWAP3 SWAP2 POP POP JUMP JUMPDEST PUSH1 0x0 PUSH1 0x20 DUP3 DUP5 SUB SLT ISZERO PUSH2 0x221 JUMPI PUSH1 0x0 DUP1 REVERT JUMPDEST PUSH2 0x22B PUSH1 0x20 PUSH2 0x42C JUMP JUMPDEST SWAP1 POP PUSH1 0x0 PUSH2 0x23B DUP5 DUP3 DUP6 ADD PUSH2 0x1FA JUMP JUMPDEST PUSH1 0x0 DUP4 ADD MSTORE POP SWAP3 SWAP2 POP POP JUMP JUMPDEST PUSH1 0x0 PUSH1 0x20 DUP3 DUP5 SUB SLT ISZERO PUSH2 0x259 JUMPI PUSH1 0x0 DUP1 REVERT JUMPDEST PUSH2 0x263 PUSH1 0x20 PUSH2 0x42C JUMP JUMPDEST SWAP1 POP PUSH1 0x0 PUSH2 0x273 DUP5 DUP3 DUP6 ADD PUSH2 0x1FA JUMP JUMPDEST PUSH1 0x0 DUP4 ADD MSTORE POP SWAP3 SWAP2 POP POP JUMP JUMPDEST PUSH1 0x0 PUSH1 0x20 DUP3 DUP5 SUB SLT ISZERO PUSH2 0x291 JUMPI PUSH1 0x0 DUP1 REVERT JUMPDEST PUSH2 0x29B PUSH1 0x20 PUSH2 0x42C JUMP JUMPDEST SWAP1 POP PUSH1 0x0 PUSH2 0x2AB DUP5 DUP3 DUP6 ADD PUSH2 0x1FA JUMP JUMPDEST PUSH1 0x0 DUP4 ADD MSTORE POP SWAP3 SWAP2 POP POP JUMP JUMPDEST PUSH1 0x0 PUSH1 0x20 DUP3 DUP5 SUB SLT ISZERO PUSH2 0x2C9 JUMPI PUSH1 0x0 DUP1 REVERT JUMPDEST PUSH1 0x0 PUSH2 0x2D7 DUP5 DUP3 DUP6 ADD PUSH2 0x20F JUMP JUMPDEST SWAP2 POP POP SWAP3 SWAP2 POP POP JUMP JUMPDEST PUSH1 0x0 PUSH1 0x20 DUP3 DUP5 SUB SLT ISZERO PUSH2 0x2F2 JUMPI PUSH1 0x0 DUP1 REVERT JUMPDEST PUSH1 0x0 PUSH2 0x300 DUP5 DUP3 DUP6 ADD PUSH2 0x247 JUMP JUMPDEST SWAP2 POP POP SWAP3 SWAP2 POP POP JUMP JUMPDEST PUSH1 0x0 PUSH1 0x20 DUP3 DUP5 SUB SLT ISZERO PUSH2 0x31B JUMPI PUSH1 0x0 DUP1 REVERT JUMPDEST PUSH1 0x0 PUSH2 0x329 DUP5 DUP3 DUP6 ADD PUSH2 0x27F JUMP JUMPDEST SWAP2 POP POP SWAP3 SWAP2 POP POP JUMP JUMPDEST PUSH2 0x33B DUP2 PUSH2 0x459 JUMP JUMPDEST DUP3 MSTORE POP POP JUMP JUMPDEST PUSH2 0x34A DUP2 PUSH2 0x459 JUMP JUMPDEST DUP3 MSTORE POP POP JUMP JUMPDEST PUSH2 0x359 DUP2 PUSH2 0x465 JUMP JUMPDEST DUP3 MSTORE POP POP JUMP JUMPDEST PUSH1 0x20 DUP3 ADD PUSH1 0x0 DUP3 ADD MLOAD PUSH2 0x375 PUSH1 0x0 DUP6 ADD DUP3 PUSH2 0x341 JUMP JUMPDEST POP POP POP POP JUMP JUMPDEST PUSH1 0x20 DUP3 ADD PUSH1 0x0 DUP3 ADD MLOAD PUSH2 0x391 PUSH1 0x0 DUP6 ADD DUP3 PUSH2 0x341 JUMP JUMPDEST POP POP POP POP JUMP JUMPDEST PUSH1 0x0 PUSH1 0x20 DUP3 ADD SWAP1 POP PUSH2 0x3AC PUSH1 0x0 DUP4 ADD DUP5 PUSH2 0x332 JUMP JUMPDEST SWAP3 SWAP2 POP POP JUMP JUMPDEST PUSH1 0x0 PUSH1 0x20 DUP3 ADD SWAP1 POP PUSH2 0x3C7 PUSH1 0x0 DUP4 ADD DUP5 PUSH2 0x350 JUMP JUMPDEST SWAP3 SWAP2 POP POP JUMP JUMPDEST PUSH1 0x0 PUSH1 0x20 DUP3 ADD SWAP1 POP PUSH2 0x3E2 PUSH1 0x0 DUP4 ADD DUP5 PUSH2 0x35F JUMP JUMPDEST SWAP3 SWAP2 POP POP JUMP JUMPDEST PUSH1 0x0 PUSH1 0x20 DUP3 ADD SWAP1 POP PUSH2 0x3FD PUSH1 0x0 DUP4 ADD DUP5 PUSH2 0x37B JUMP JUMPDEST SWAP3 SWAP2 POP POP JUMP JUMPDEST PUSH1 0x0 PUSH1 0x40 DUP3 ADD SWAP1 POP PUSH2 0x418 PUSH1 0x0 DUP4 ADD DUP6 PUSH2 0x37B JUMP JUMPDEST PUSH2 0x425 PUSH1 0x20 DUP4 ADD DUP5 PUSH2 0x332 JUMP JUMPDEST SWAP4 SWAP3 POP POP POP JUMP JUMPDEST PUSH1 0x0 PUSH1 0x40 MLOAD SWAP1 POP DUP2 DUP2 ADD DUP2 DUP2 LT PUSH8 0xFFFFFFFFFFFFFFFF DUP3 GT OR ISZERO PUSH2 0x44F JUMPI PUSH1 0x0 DUP1 REVERT JUMPDEST DUP1 PUSH1 0x40 MSTORE POP SWAP2 SWAP1 POP JUMP JUMPDEST PUSH1 0x0 DUP2 ISZERO ISZERO SWAP1 POP SWAP2 SWAP1 POP JUMP JUMPDEST PUSH1 0x0 DUP2 SWAP1 POP SWAP2 SWAP1 POP JUMP JUMPDEST PUSH2 0x478 DUP2 PUSH2 0x459 JUMP JUMPDEST DUP2 EQ PUSH2 0x483 JUMPI PUSH1 0x0 DUP1 REVERT JUMPDEST POP JUMP INVALID LOG2 PUSH5 0x6970667358 0x22 SLT KECCAK256 SWAP14 MSIZE LOG0 0x1F 0xC1 0xF9 SAR GASLIMIT 0x5C PUSH27 0x3C1617772CC6978B6AEFB1CF0578E6E822C2A5D48AC364736F6C63 NUMBER STOP MOD ADDMOD STOP CALLER "
    }
  },
  "interface": [
    {
      "inputs": [
        {
          "components": [
            {
              "internalType": "bool",
              "name": "temp",
              "type": "bool"
            }
          ],
          "internalType": "struct Machine.Seed",
          "name": "_seed",
          "type": "tuple"
        }
      ],
      "name": "create",
      "outputs": [
        {
          "components": [
            {
              "internalType": "bool",
              "name": "temp",
              "type": "bool"
            }
          ],
          "internalType": "struct Machine.State",
          "name": "",
          "type": "tuple"
        }
      ],
      "stateMutability": "pure",
      "type": "function"
    },
    {
      "inputs": [
        {
          "components": [
            {
              "internalType": "bool",
              "name": "temp",
              "type": "bool"
            }
          ],
          "internalType": "struct Machine.Image",
          "name": "_image",
          "type": "tuple"
        }
      ],
      "name": "imageHash",
      "outputs": [
        {
          "internalType": "bytes32",
          "name": "",
          "type": "bytes32"
        }
      ],
      "stateMutability": "pure",
      "type": "function"
    },
    {
      "inputs": [
        {
          "components": [
            {
              "internalType": "bool",
              "name": "temp",
              "type": "bool"
            }
          ],
          "internalType": "struct Machine.State",
          "name": "_state",
          "type": "tuple"
        }
      ],
      "name": "isTerminal",
      "outputs": [
        {
          "internalType": "bool",
          "name": "",
          "type": "bool"
        }
      ],
      "stateMutability": "pure",
      "type": "function"
    },
    {
      "inputs": [
        {
          "components": [
            {
              "internalType": "bool",
              "name": "temp",
              "type": "bool"
            }
          ],
          "internalType": "struct Machine.State",
          "name": "_state",
          "type": "tuple"
        }
      ],
      "name": "next",
      "outputs": [
        {
          "components": [
            {
              "internalType": "bool",
              "name": "temp",
              "type": "bool"
            }
          ],
          "internalType": "struct Machine.State",
          "name": "",
          "type": "tuple"
        },
        {
          "internalType": "bool",
          "name": "",
          "type": "bool"
        }
      ],
      "stateMutability": "pure",
      "type": "function"
    },
    {
      "inputs": [
        {
          "components": [
            {
              "internalType": "bool",
              "name": "temp",
              "type": "bool"
            }
          ],
          "internalType": "struct Machine.State",
          "name": "_state",
          "type": "tuple"
        }
      ],
      "name": "project",
      "outputs": [
        {
          "components": [
            {
              "internalType": "bool",
              "name": "temp",
              "type": "bool"
            }
          ],
          "internalType": "struct Machine.Image",
          "name": "",
          "type": "tuple"
        }
      ],
      "stateMutability": "pure",
      "type": "function"
    },
    {
      "inputs": [
        {
          "components": [
            {
              "internalType": "bool",
              "name": "temp",
              "type": "bool"
            }
          ],
          "internalType": "struct Machine.State",
          "name": "_state",
          "type": "tuple"
        }
      ],
      "name": "stateHash",
      "outputs": [
        {
          "internalType": "bytes32",
          "name": "",
          "type": "bytes32"
        }
      ],
      "stateMutability": "pure",
      "type": "function"
    }
  ]
}