{
  "abi": [
    {
      "anonymous": false,
      "inputs": [
        {
          "indexed": false,
          "internalType": "bytes32",
          "name": "questionKey",
          "type": "bytes32"
        },
        {
          "indexed": false,
          "internalType": "bytes32",
          "name": "answerKey",
          "type": "bytes32"
        }
      ],
      "name": "AnswerFalsified",
      "type": "event"
    },
    {
      "anonymous": false,
      "inputs": [
        {
          "indexed": false,
          "internalType": "bytes32",
          "name": "questionKey",
          "type": "bytes32"
        },
        {
          "indexed": false,
          "internalType": "bytes32",
          "name": "answerKey",
          "type": "bytes32"
        }
      ],
      "name": "NewAnswer",
      "type": "event"
    },
    {
      "anonymous": false,
      "inputs": [
        {
          "indexed": false,
          "internalType": "bytes32",
          "name": "questionKey",
          "type": "bytes32"
        },
        {
          "components": [
            {
              "internalType": "bool",
              "name": "temp",
              "type": "bool"
            }
          ],
          "indexed": false,
          "internalType": "struct Machine.Seed",
          "name": "seed",
          "type": "tuple"
        },
        {
          "indexed": false,
          "internalType": "address",
          "name": "asker",
          "type": "address"
        }
      ],
      "name": "NewQuestion",
      "type": "event"
    },
    {
      "anonymous": false,
      "inputs": [
        {
          "indexed": false,
          "internalType": "bytes32",
          "name": "questionKey",
          "type": "bytes32"
        },
        {
          "components": [
            {
              "internalType": "bool",
              "name": "temp",
              "type": "bool"
            }
          ],
          "indexed": false,
          "internalType": "struct Machine.Image",
          "name": "image",
          "type": "tuple"
        }
      ],
      "name": "QuestionResolvedSuccessfully",
      "type": "event"
    },
    {
      "anonymous": false,
      "inputs": [
        {
          "indexed": false,
          "internalType": "bytes32",
          "name": "questionKey",
          "type": "bytes32"
        }
      ],
      "name": "QuestionResolvedUnsuccessfully",
      "type": "event"
    },
    {
      "inputs": [],
      "name": "MAX_ANSWER_NUMBER",
      "outputs": [
        {
          "internalType": "uint256",
          "name": "",
          "type": "uint256"
        }
      ],
      "stateMutability": "view",
      "type": "function"
    },
    {
      "inputs": [],
      "name": "STAKE_SIZE",
      "outputs": [
        {
          "internalType": "uint256",
          "name": "",
          "type": "uint256"
        }
      ],
      "stateMutability": "view",
      "type": "function"
    },
    {
      "inputs": [
        {
          "internalType": "bytes32",
          "name": "questionKey",
          "type": "bytes32"
        },
        {
          "internalType": "bytes32",
          "name": "imageHash",
          "type": "bytes32"
        }
      ],
      "name": "answer",
      "outputs": [],
      "stateMutability": "payable",
      "type": "function"
    },
    {
      "inputs": [
        {
          "internalType": "bytes32",
          "name": "",
          "type": "bytes32"
        }
      ],
      "name": "answers",
      "outputs": [
        {
          "internalType": "address",
          "name": "answerer",
          "type": "address"
        },
        {
          "internalType": "bool",
          "name": "falsified",
          "type": "bool"
        },
        {
          "internalType": "bytes32",
          "name": "questionKey",
          "type": "bytes32"
        }
      ],
      "stateMutability": "view",
      "type": "function"
    },
    {
      "inputs": [
        {
          "components": [
            {
              "internalType": "bool",
              "name": "temp",
              "type": "bool"
            }
          ],
          "internalType": "struct Machine.Seed",
          "name": "seed",
          "type": "tuple"
        },
        {
          "internalType": "uint256",
          "name": "timeout",
          "type": "uint256"
        },
        {
          "internalType": "function (bytes32,struct Machine.Image) external",
          "name": "successCallback",
          "type": "function"
        },
        {
          "internalType": "function (bytes32) external",
          "name": "failCallback",
          "type": "function"
        }
      ],
      "name": "ask",
      "outputs": [],
      "stateMutability": "nonpayable",
      "type": "function"
    },
    {
      "inputs": [],
      "name": "court",
      "outputs": [
        {
          "internalType": "address",
          "name": "",
          "type": "address"
        }
      ],
      "stateMutability": "view",
      "type": "function"
    },
    {
      "inputs": [
        {
          "internalType": "bytes32",
          "name": "answerKey",
          "type": "bytes32"
        },
        {
          "internalType": "address",
          "name": "prosecutor",
          "type": "address"
        }
      ],
      "name": "falsify",
      "outputs": [],
      "stateMutability": "nonpayable",
      "type": "function"
    },
    {
      "inputs": [
        {
          "internalType": "bytes32",
          "name": "answerKey",
          "type": "bytes32"
        }
      ],
      "name": "getAnswer",
      "outputs": [
        {
          "components": [
            {
              "internalType": "address",
              "name": "answerer",
              "type": "address"
            },
            {
              "internalType": "bool",
              "name": "falsified",
              "type": "bool"
            },
            {
              "internalType": "bytes32",
              "name": "questionKey",
              "type": "bytes32"
            }
          ],
          "internalType": "struct IOracle.Answer",
          "name": "",
          "type": "tuple"
        }
      ],
      "stateMutability": "view",
      "type": "function"
    },
    {
      "inputs": [
        {
          "internalType": "bytes32",
          "name": "questionKey",
          "type": "bytes32"
        }
      ],
      "name": "getQuestion",
      "outputs": [
        {
          "components": [
            {
              "internalType": "uint256",
              "name": "askTime",
              "type": "uint256"
            },
            {
              "internalType": "uint256",
              "name": "timeout",
              "type": "uint256"
            },
            {
              "internalType": "bytes32[]",
              "name": "answerKeys",
              "type": "bytes32[]"
            },
            {
              "internalType": "function (bytes32,struct Machine.Image) external",
              "name": "successCallback",
              "type": "function"
            },
            {
              "internalType": "function (bytes32) external",
              "name": "failCallback",
              "type": "function"
            }
          ],
          "internalType": "struct IOracle.Question",
          "name": "",
          "type": "tuple"
        }
      ],
      "stateMutability": "view",
      "type": "function"
    },
    {
      "inputs": [
        {
          "internalType": "bytes32",
          "name": "",
          "type": "bytes32"
        }
      ],
      "name": "questions",
      "outputs": [
        {
          "internalType": "uint256",
          "name": "askTime",
          "type": "uint256"
        },
        {
          "internalType": "uint256",
          "name": "timeout",
          "type": "uint256"
        },
        {
          "internalType": "function (bytes32,struct Machine.Image) external",
          "name": "successCallback",
          "type": "function"
        },
        {
          "internalType": "function (bytes32) external",
          "name": "failCallback",
          "type": "function"
        }
      ],
      "stateMutability": "view",
      "type": "function"
    },
    {
      "inputs": [
        {
          "internalType": "bytes32",
          "name": "questionKey",
          "type": "bytes32"
        }
      ],
      "name": "resolveFail",
      "outputs": [],
      "stateMutability": "nonpayable",
      "type": "function"
    },
    {
      "inputs": [
        {
          "internalType": "bytes32",
          "name": "answerKey",
          "type": "bytes32"
        },
        {
          "components": [
            {
              "internalType": "bool",
              "name": "temp",
              "type": "bool"
            }
          ],
          "internalType": "struct Machine.Image",
          "name": "image",
          "type": "tuple"
        }
      ],
      "name": "resolveSuccess",
      "outputs": [],
      "stateMutability": "nonpayable",
      "type": "function"
    }
  ],
  "evm": {
    "bytecode": {
      "linkReferences": {
        "src/Machine.template.sol": {
          "Machine": [
            {
              "length": 20,
              "start": 3237
            },
            {
              "length": 20,
              "start": 3949
            },
            {
              "length": 20,
              "start": 3975
            }
          ]
        }
      },
      "object": "608060405234801561001057600080fd5b50612583806100206000396000f3fe6080604052600436106100a65760003560e01c8063aac753b611610064578063aac753b6146101d7578063ba10b03f14610216578063cdc6896514610241578063ec45e1e21461026a578063f8c5a2b414610293578063fea429b5146102bc576100a6565b8062971a30146100ab5780633acc0933146100d657806358c039cd146100ff5780638a4599c71461013c57806395addb9014610179578063aa33f56a146101bb575b600080fd5b3480156100b757600080fd5b506100c06102e7565b6040516100cd9190611f0c565b60405180910390f35b3480156100e257600080fd5b506100fd60048036038101906100f891906115ef565b61030d565b005b34801561010b57600080fd5b50610126600480360381019061012191906115ef565b6104c3565b6040516101339190612218565b60405180910390f35b34801561014857600080fd5b50610163600480360381019061015e91906115ef565b610615565b60405161017091906121e2565b60405180910390f35b34801561018557600080fd5b506101a0600480360381019061019b91906115ef565b6106bd565b6040516101b29695949392919061228b565b60405180910390f35b6101d560048036038101906101d0919061167d565b610745565b005b3480156101e357600080fd5b506101fe60048036038101906101f991906115ef565b610991565b60405161020d93929190611f27565b60405180910390f35b34801561022257600080fd5b5061022b6109e8565b6040516102389190612270565b60405180910390f35b34801561024d57600080fd5b5061026860048036038101906102639190611641565b6109ee565b005b34801561027657600080fd5b50610291600480360381019061028c91906116b9565b610ba7565b005b34801561029f57600080fd5b506102ba60048036038101906102b591906116f5565b610f49565b005b3480156102c857600080fd5b506102d16111fd565b6040516102de9190612270565b60405180910390f35b600260009054906101000a900473ffffffffffffffffffffffffffffffffffffffff1681565b6000806000838152602001908152602001600020905061032c82611203565b61036b576040517f08c379a000000000000000000000000000000000000000000000000000000000815260040161036290612042565b60405180910390fd5b80600101546002028160000154014210156103bb576040517f08c379a00000000000000000000000000000000000000000000000000000000081526004016103b2906120c2565b60405180910390fd5b6000808260040160009054906101000a90048060201c73ffffffffffffffffffffffffffffffffffffffff169063ffffffff16915091506103fb84611224565b8181856040518263ffffffff1660e01b815260040161041a9190611f5e565b600060405180830381600087803b15801561043457600080fd5b505af1925050508015610445575060015b610485577f0aa4b482a01306ad9e95d99e26f1eff1da2ab4cddaeee1c6e64c257843a99166846040516104789190611f5e565b60405180910390a16104bd565b7f0aa4b482a01306ad9e95d99e26f1eff1da2ab4cddaeee1c6e64c257843a99166846040516104b49190611f5e565b60405180910390a15b50505050565b6104cb6113ca565b6000808381526020019081526020016000206040518060a001604052908160008201548152602001600182015481526020016002820180548060200260200160405190810160405280929190818152602001828054801561054b57602002820191906000526020600020905b815481526020019060010190808311610537575b505050505081526020016003820160009054906101000a90048060201c73ffffffffffffffffffffffffffffffffffffffff169063ffffffff1677ffffffffffffffffffffffffffffffffffffffffffffffff1663ffffffff169060201b1760401b81526020016004820160009054906101000a90048060201c73ffffffffffffffffffffffffffffffffffffffff169063ffffffff1677ffffffffffffffffffffffffffffffffffffffffffffffff1663ffffffff169060201b1760401b815250509050919050565b61061d611417565b600160008381526020019081526020016000206040518060600160405290816000820160009054906101000a900473ffffffffffffffffffffffffffffffffffffffff1673ffffffffffffffffffffffffffffffffffffffff1673ffffffffffffffffffffffffffffffffffffffff1681526020016000820160149054906101000a900460ff161515151581526020016001820154815250509050919050565b60006020528060005260406000206000915090508060000154908060010154908060030160009054906101000a90048060201c73ffffffffffffffffffffffffffffffffffffffff169063ffffffff1690918060040160009054906101000a90048060201c73ffffffffffffffffffffffffffffffffffffffff169063ffffffff1690915086565b6000806000848152602001908152602001600020905060006001600084815260200190815260200160002090506003543410156107b7576040517f08c379a00000000000000000000000000000000000000000000000000000000081526004016107ae90612062565b60405180910390fd5b6107c084611203565b6107ff576040517f08c379a00000000000000000000000000000000000000000000000000000000081526004016107f6906120a2565b60405180910390fd5b6108088361136f565b15610848576040517f08c379a000000000000000000000000000000000000000000000000000000000815260040161083f90612082565b60405180910390fd5b61085184611394565b610890576040517f08c379a000000000000000000000000000000000000000000000000000000000815260040161088790612022565b60405180910390fd5b6004548260020180549050106108db576040517f08c379a00000000000000000000000000000000000000000000000000000000081526004016108d290612182565b60405180910390fd5b81600201839080600181540180825580915050600190039060005260206000200160009091909190915055338160000160006101000a81548173ffffffffffffffffffffffffffffffffffffffff021916908373ffffffffffffffffffffffffffffffffffffffff1602179055508381600101819055507f4cab1e0f6e8cacd7b85c78d46b9e31a7449f5a33c10c9f6f8a8c5b2cc1406ed48484604051610983929190611f79565b60405180910390a150505050565b60016020528060005260406000206000915090508060000160009054906101000a900473ffffffffffffffffffffffffffffffffffffffff16908060000160149054906101000a900460ff16908060010154905083565b60045481565b6000600160008481526020019081526020016000209050610a0e8361136f565b610a4d576040517f08c379a0000000000000000000000000000000000000000000000000000000008152600401610a4490612142565b60405180910390fd5b600260009054906101000a900473ffffffffffffffffffffffffffffffffffffffff1673ffffffffffffffffffffffffffffffffffffffff163373ffffffffffffffffffffffffffffffffffffffff1614610add576040517f08c379a0000000000000000000000000000000000000000000000000000000008152600401610ad490612002565b60405180910390fd5b60018160000160146101000a81548160ff0219169083151502179055508173ffffffffffffffffffffffffffffffffffffffff16600354604051610b2090611ef7565b60006040518083038185875af1925050503d8060008114610b5d576040519150601f19603f3d011682016040523d82523d6000602084013e610b62565b606091505b5050507fd0f952eab2e887527ca51bdf015b918e4e99d8bd87e995d2f090c93631330687816001015484604051610b9a929190611f79565b60405180910390a1505050565b60006001600084815260200190815260200160002090506000806000836001015481526020019081526020016000209050610be58260010154611203565b8015610bf65750610bf58461136f565b5b610c35576040517f08c379a0000000000000000000000000000000000000000000000000000000008152600401610c2c906121a2565b60405180910390fd5b8060010154816000015401421015610c82576040517f08c379a0000000000000000000000000000000000000000000000000000000008152600401610c79906120e2565b60405180910390fd5b8373__$9569dd854045494fea50df1ce478cb55be$__63d14345a1856040518263ffffffff1660e01b8152600401610cba91906121fd565b60206040518083038186803b158015610cd257600080fd5b505af4158015610ce6573d6000803e3d6000fd5b505050506040513d601f19601f82011682018060405250810190610d0a9190611618565b14610d4a576040517f08c379a0000000000000000000000000000000000000000000000000000000008152600401610d4190612162565b60405180910390fd5b8160000160149054906101000a900460ff1615610d9c576040517f08c379a0000000000000000000000000000000000000000000000000000000008152600401610d9390612102565b60405180910390fd5b60008260010154905060008360000160009054906101000a900473ffffffffffffffffffffffffffffffffffffffff1690506000808460030160009054906101000a90048060201c73ffffffffffffffffffffffffffffffffffffffff169063ffffffff1691509150610e0e84611224565b8273ffffffffffffffffffffffffffffffffffffffff16600354604051610e3490611ef7565b60006040518083038185875af1925050503d8060008114610e71576040519150601f19603f3d011682016040523d82523d6000602084013e610e76565b606091505b505050818185896040518363ffffffff1660e01b8152600401610e9a929190611fa2565b600060405180830381600087803b158015610eb457600080fd5b505af1925050508015610ec5575060015b610f05577f0aa4b482a01306ad9e95d99e26f1eff1da2ab4cddaeee1c6e64c257843a9916684604051610ef89190611f5e565b60405180910390a1610f3f565b7f6d62db5fe21e28a1997c556654aaee3f4097de7c437f4d3a9ae01250ed21cb928488604051610f36929190611fa2565b60405180910390a15b5050505050505050565b600073__$9569dd854045494fea50df1ce478cb55be$__638561a64873__$9569dd854045494fea50df1ce478cb55be$__63032e7ced8a6040518263ffffffff1660e01b8152600401610f9c919061223a565b60206040518083038186803b158015610fb457600080fd5b505af4158015610fc8573d6000803e3d6000fd5b505050506040513d601f19601f82011682018060405250810190610fec9190611760565b6040518263ffffffff1660e01b81526004016110089190612255565b60206040518083038186803b15801561102057600080fd5b505af4158015611034573d6000803e3d6000fd5b505050506040513d601f19601f820116820180604052508101906110589190611618565b90506000806000838152602001908152602001600020905061107982611203565b156110b9576040517f08c379a00000000000000000000000000000000000000000000000000000000081526004016110b0906121c2565b60405180910390fd5b600087116110fc576040517f08c379a00000000000000000000000000000000000000000000000000000000081526004016110f390612122565b60405180910390fd5b42816000018190555086816001018190555085858260030160006101000a81548177ffffffffffffffffffffffffffffffffffffffffffffffff02191690848463ffffffff169073ffffffffffffffffffffffffffffffffffffffff1660201b1702179055505083838260040160006101000a81548177ffffffffffffffffffffffffffffffffffffffffffffffff02191690848463ffffffff169073ffffffffffffffffffffffffffffffffffffffff1660201b170217905550507f5e444dadcd62c4ddf9dba20ddced81df419d7cc97b15ab5b5fae3753e108b2ea8289336040516111eb93929190611fcb565b60405180910390a15050505050505050565b60035481565b60008060008084815260200190815260200160002060000154119050919050565b60008090505b600080838152602001908152602001600020600201805490508110156112e0576000806000848152602001908152602001600020600201828154811061126c57fe5b9060005260206000200154905060016000828152602001908152602001600020600080820160006101000a81549073ffffffffffffffffffffffffffffffffffffffff02191690556000820160146101000a81549060ff02191690556001820160009055505050808060010191505061122a565b5060008082815260200190815260200160002060008082016000905560018201600090556002820160006113149190611453565b6003820160006101000a81549077ffffffffffffffffffffffffffffffffffffffffffffffff02191690556004820160006101000a81549077ffffffffffffffffffffffffffffffffffffffffffffffff0219169055505050565b60008060001b6001600084815260200190815260200160002060010154119050919050565b600080600080848152602001908152602001600020905060038160010154816113b957fe5b048160000154014210915050919050565b6040518060a0016040528060008152602001600081526020016060815260200160008063ffffffff169060201b1760401b815260200160008063ffffffff169060201b1760401b81525090565b6040518060600160405280600073ffffffffffffffffffffffffffffffffffffffff168152602001600015158152602001600080191681525090565b50805460008255906000526020600020908101906114719190611474565b50565b61149691905b8082111561149257600081600090555060010161147a565b5090565b90565b6000813590506114a8816124c3565b92915050565b6000813590506114bd816124da565b92915050565b6000815190506114d2816124da565b92915050565b6000813590506114e7816124f1565b92915050565b6000815190506114fc816124f1565b92915050565b60008135905061151181612508565b92915050565b60008061152c6115278585611502565b61249c565b915091509250929050565b6000813590506115468161251f565b92915050565b60008061156161155c8585611537565b61249c565b915091509250929050565b60006020828403121561157e57600080fd5b81905092915050565b60006020828403121561159957600080fd5b81905092915050565b6000602082840312156115b457600080fd5b6115be60206122d4565b905060006115ce848285016114c3565b60008301525092915050565b6000813590506115e981612536565b92915050565b60006020828403121561160157600080fd5b600061160f848285016114d8565b91505092915050565b60006020828403121561162a57600080fd5b6000611638848285016114ed565b91505092915050565b6000806040838503121561165457600080fd5b6000611662858286016114d8565b925050602061167385828601611499565b9150509250929050565b6000806040838503121561169057600080fd5b600061169e858286016114d8565b92505060206116af858286016114d8565b9150509250929050565b600080604083850312156116cc57600080fd5b60006116da858286016114d8565b92505060206116eb8582860161156c565b9150509250929050565b6000806000806000806080878903121561170e57600080fd5b600061171c89828a01611587565b965050602061172d89828a016115da565b955050604061173e89828a01611517565b9450945050606061175189828a0161154c565b92509250509295509295509295565b60006020828403121561177257600080fd5b6000611780848285016115a2565b91505092915050565b60006117958383611859565b60208301905092915050565b6117aa81612432565b82525050565b6117b98161236d565b82525050565b6117c88161236d565b82525050565b60006117d982612311565b6117e38185612329565b93506117ee83612301565b8060005b8381101561181f5781516118068882611789565b97506118118361231c565b9250506001810190506117f2565b5085935050505092915050565b6118358161237f565b82525050565b6118448161237f565b82525050565b6118538161237f565b82525050565b611862816123b7565b82525050565b611871816123b7565b82525050565b611880816123c1565b82525050565b611890828261240f565b8352505050565b6118a0816123d3565b82525050565b6118b0828261240f565b8352505050565b60006118c4601e83612345565b91507f4f6e6c7920636f7572742063616e2066616c7369667920616e737765727300006000830152602082019050919050565b6000611904604a83612345565b91507f5468657265206973206e6f7420656e6f6775682074696d65206c65667420666f60008301527f72207375626d697474696e67206e657720616e737765727320746f207468697360208301527f207175657374696f6e2e000000000000000000000000000000000000000000006040830152606082019050919050565b6000611990601483612345565b91507f5175657374696f6e206d7573742065786973742e0000000000000000000000006000830152602082019050919050565b60006119d0601683612345565b91507f4e6f7420656e6f756768207374616b652073656e742e000000000000000000006000830152602082019050919050565b6000611a10601683612345565b91507f416e7377657220616c7265616479206578697374732e000000000000000000006000830152602082019050919050565b6000611a50601883612345565b91507f5175657374696f6e20646f6573206e6f742065786973742e00000000000000006000830152602082019050919050565b6000611a90602283612345565b91507f4974206973206e6f74207468652074696d6520746f206769766520757020796560008301527f742e0000000000000000000000000000000000000000000000000000000000006020830152604082019050919050565b6000611af6601f83612345565b91507f416e73776572696e67206973207374696c6c20696e2070726f67726573732e006000830152602082019050919050565b6000611b3660008361233a565b9150600082019050919050565b6000611b50601983612345565b91507f5468697320616e73776572207761732066616c736966696564000000000000006000830152602082019050919050565b6000611b90602283612345565b91507f54696d656f7574206d7573742062652067726561746572207468656e207a657260008301527f6f2e0000000000000000000000000000000000000000000000000000000000006020830152604082019050919050565b6000611bf6603083612345565b91507f54686520616e7377657220747279696e6720746f2062652066616c736966696560008301527f6420646f6573206e6f74206578697374000000000000000000000000000000006020830152604082019050919050565b6000611c5c602483612345565b91507f496d616765206861736820646f6573206e6f74206d6174636820616e7377657260008301527f4b65792e000000000000000000000000000000000000000000000000000000006020830152604082019050919050565b6000611cc2601d83612345565b91507f416c6c2074686520616e7377657220736c6f7473206172652066756c6c0000006000830152602082019050919050565b6000611d02602083612345565b91507f5175657374696f6e20616e6420616e73776572206d757374206578697374732e6000830152602082019050919050565b6000611d42601883612345565b91507f5175657374696f6e20616c7265616479206578697374732e00000000000000006000830152602082019050919050565b606082016000820151611d8b60008501826117b0565b506020820151611d9e602085018261182c565b506040820151611db16040850182611859565b50505050565b60208201611dc86000830183612356565b611dd5600085018261182c565b50505050565b60208201611dec6000830183612356565b611df9600085018261184a565b50505050565b600060a083016000830151611e176000860182611ed9565b506020830151611e2a6020860182611ed9565b5060408301518482036040860152611e4282826117ce565b9150506060830151611e576060860182611877565b506080830151611e6a6080860182611897565b508091505092915050565b60208201611e866000830183612356565b611e93600085018261182c565b50505050565b60208201611eaa6000830183612356565b611eb7600085018261184a565b50505050565b602082016000820151611ed3600085018261184a565b50505050565b611ee281612405565b82525050565b611ef181612405565b82525050565b6000611f0282611b29565b9150819050919050565b6000602082019050611f2160008301846117bf565b92915050565b6000606082019050611f3c60008301866117bf565b611f49602083018561183b565b611f566040830184611868565b949350505050565b6000602082019050611f736000830184611868565b92915050565b6000604082019050611f8e6000830185611868565b611f9b6020830184611868565b9392505050565b6000604082019050611fb76000830185611868565b611fc46020830184611db7565b9392505050565b6000606082019050611fe06000830186611868565b611fed6020830185611e75565b611ffa60408301846117a1565b949350505050565b6000602082019050818103600083015261201b816118b7565b9050919050565b6000602082019050818103600083015261203b816118f7565b9050919050565b6000602082019050818103600083015261205b81611983565b9050919050565b6000602082019050818103600083015261207b816119c3565b9050919050565b6000602082019050818103600083015261209b81611a03565b9050919050565b600060208201905081810360008301526120bb81611a43565b9050919050565b600060208201905081810360008301526120db81611a83565b9050919050565b600060208201905081810360008301526120fb81611ae9565b9050919050565b6000602082019050818103600083015261211b81611b43565b9050919050565b6000602082019050818103600083015261213b81611b83565b9050919050565b6000602082019050818103600083015261215b81611be9565b9050919050565b6000602082019050818103600083015261217b81611c4f565b9050919050565b6000602082019050818103600083015261219b81611cb5565b9050919050565b600060208201905081810360008301526121bb81611cf5565b9050919050565b600060208201905081810360008301526121db81611d35565b9050919050565b60006060820190506121f76000830184611d75565b92915050565b60006020820190506122126000830184611ddb565b92915050565b600060208201905081810360008301526122328184611dff565b905092915050565b600060208201905061224f6000830184611e99565b92915050565b600060208201905061226a6000830184611ebd565b92915050565b60006020820190506122856000830184611ee8565b92915050565b60006080820190506122a06000830189611ee8565b6122ad6020830188611ee8565b6122bb604083018688611886565b6122c96060830184866118a6565b979650505050505050565b6000604051905081810181811067ffffffffffffffff821117156122f757600080fd5b8060405250919050565b6000819050602082019050919050565b600081519050919050565b6000602082019050919050565b600082825260208201905092915050565b600081905092915050565b600082825260208201905092915050565b600061236560208401846114ae565b905092915050565b6000612378826123e5565b9050919050565b60008115159050919050565b60007fffffffffffffffffffffffffffffffffffffffffffffffff000000000000000082169050919050565b6000819050919050565b60006123cc8261238b565b9050919050565b60006123de8261238b565b9050919050565b600073ffffffffffffffffffffffffffffffffffffffff82169050919050565b6000819050919050565b600061242a63ffffffff841661242484612468565b17612475565b905092915050565b600061243d82612444565b9050919050565b600061244f82612456565b9050919050565b6000612461826123e5565b9050919050565b60008160201b9050919050565b60008160401b9050919050565b60008160201c9050919050565b60008160401c9050919050565b6000806124a88361248f565b925063ffffffff831690506124bc83612482565b9150915091565b6124cc8161236d565b81146124d757600080fd5b50565b6124e38161237f565b81146124ee57600080fd5b50565b6124fa816123b7565b811461250557600080fd5b50565b612511816123c1565b811461251c57600080fd5b50565b612528816123d3565b811461253357600080fd5b50565b61253f81612405565b811461254a57600080fd5b5056fea2646970667358221220e736e46a57bbf77877f005c1f3a891f2c72d7a2f101de82c63fda2ed61debc3e64736f6c63430006080033",
      "opcodes": "PUSH1 0x80 PUSH1 0x40 MSTORE CALLVALUE DUP1 ISZERO PUSH2 0x10 JUMPI PUSH1 0x0 DUP1 REVERT JUMPDEST POP PUSH2 0x2583 DUP1 PUSH2 0x20 PUSH1 0x0 CODECOPY PUSH1 0x0 RETURN INVALID PUSH1 0x80 PUSH1 0x40 MSTORE PUSH1 0x4 CALLDATASIZE LT PUSH2 0xA6 JUMPI PUSH1 0x0 CALLDATALOAD PUSH1 0xE0 SHR DUP1 PUSH4 0xAAC753B6 GT PUSH2 0x64 JUMPI DUP1 PUSH4 0xAAC753B6 EQ PUSH2 0x1D7 JUMPI DUP1 PUSH4 0xBA10B03F EQ PUSH2 0x216 JUMPI DUP1 PUSH4 0xCDC68965 EQ PUSH2 0x241 JUMPI DUP1 PUSH4 0xEC45E1E2 EQ PUSH2 0x26A JUMPI DUP1 PUSH4 0xF8C5A2B4 EQ PUSH2 0x293 JUMPI DUP1 PUSH4 0xFEA429B5 EQ PUSH2 0x2BC JUMPI PUSH2 0xA6 JUMP JUMPDEST DUP1 PUSH3 0x971A30 EQ PUSH2 0xAB JUMPI DUP1 PUSH4 0x3ACC0933 EQ PUSH2 0xD6 JUMPI DUP1 PUSH4 0x58C039CD EQ PUSH2 0xFF JUMPI DUP1 PUSH4 0x8A4599C7 EQ PUSH2 0x13C JUMPI DUP1 PUSH4 0x95ADDB90 EQ PUSH2 0x179 JUMPI DUP1 PUSH4 0xAA33F56A EQ PUSH2 0x1BB JUMPI JUMPDEST PUSH1 0x0 DUP1 REVERT JUMPDEST CALLVALUE DUP1 ISZERO PUSH2 0xB7 JUMPI PUSH1 0x0 DUP1 REVERT JUMPDEST POP PUSH2 0xC0 PUSH2 0x2E7 JUMP JUMPDEST PUSH1 0x40 MLOAD PUSH2 0xCD SWAP2 SWAP1 PUSH2 0x1F0C JUMP JUMPDEST PUSH1 0x40 MLOAD DUP1 SWAP2 SUB SWAP1 RETURN JUMPDEST CALLVALUE DUP1 ISZERO PUSH2 0xE2 JUMPI PUSH1 0x0 DUP1 REVERT JUMPDEST POP PUSH2 0xFD PUSH1 0x4 DUP1 CALLDATASIZE SUB DUP2 ADD SWAP1 PUSH2 0xF8 SWAP2 SWAP1 PUSH2 0x15EF JUMP JUMPDEST PUSH2 0x30D JUMP JUMPDEST STOP JUMPDEST CALLVALUE DUP1 ISZERO PUSH2 0x10B JUMPI PUSH1 0x0 DUP1 REVERT JUMPDEST POP PUSH2 0x126 PUSH1 0x4 DUP1 CALLDATASIZE SUB DUP2 ADD SWAP1 PUSH2 0x121 SWAP2 SWAP1 PUSH2 0x15EF JUMP JUMPDEST PUSH2 0x4C3 JUMP JUMPDEST PUSH1 0x40 MLOAD PUSH2 0x133 SWAP2 SWAP1 PUSH2 0x2218 JUMP JUMPDEST PUSH1 0x40 MLOAD DUP1 SWAP2 SUB SWAP1 RETURN JUMPDEST CALLVALUE DUP1 ISZERO PUSH2 0x148 JUMPI PUSH1 0x0 DUP1 REVERT JUMPDEST POP PUSH2 0x163 PUSH1 0x4 DUP1 CALLDATASIZE SUB DUP2 ADD SWAP1 PUSH2 0x15E SWAP2 SWAP1 PUSH2 0x15EF JUMP JUMPDEST PUSH2 0x615 JUMP JUMPDEST PUSH1 0x40 MLOAD PUSH2 0x170 SWAP2 SWAP1 PUSH2 0x21E2 JUMP JUMPDEST PUSH1 0x40 MLOAD DUP1 SWAP2 SUB SWAP1 RETURN JUMPDEST CALLVALUE DUP1 ISZERO PUSH2 0x185 JUMPI PUSH1 0x0 DUP1 REVERT JUMPDEST POP PUSH2 0x1A0 PUSH1 0x4 DUP1 CALLDATASIZE SUB DUP2 ADD SWAP1 PUSH2 0x19B SWAP2 SWAP1 PUSH2 0x15EF JUMP JUMPDEST PUSH2 0x6BD JUMP JUMPDEST PUSH1 0x40 MLOAD PUSH2 0x1B2 SWAP7 SWAP6 SWAP5 SWAP4 SWAP3 SWAP2 SWAP1 PUSH2 0x228B JUMP JUMPDEST PUSH1 0x40 MLOAD DUP1 SWAP2 SUB SWAP1 RETURN JUMPDEST PUSH2 0x1D5 PUSH1 0x4 DUP1 CALLDATASIZE SUB DUP2 ADD SWAP1 PUSH2 0x1D0 SWAP2 SWAP1 PUSH2 0x167D JUMP JUMPDEST PUSH2 0x745 JUMP JUMPDEST STOP JUMPDEST CALLVALUE DUP1 ISZERO PUSH2 0x1E3 JUMPI PUSH1 0x0 DUP1 REVERT JUMPDEST POP PUSH2 0x1FE PUSH1 0x4 DUP1 CALLDATASIZE SUB DUP2 ADD SWAP1 PUSH2 0x1F9 SWAP2 SWAP1 PUSH2 0x15EF JUMP JUMPDEST PUSH2 0x991 JUMP JUMPDEST PUSH1 0x40 MLOAD PUSH2 0x20D SWAP4 SWAP3 SWAP2 SWAP1 PUSH2 0x1F27 JUMP JUMPDEST PUSH1 0x40 MLOAD DUP1 SWAP2 SUB SWAP1 RETURN JUMPDEST CALLVALUE DUP1 ISZERO PUSH2 0x222 JUMPI PUSH1 0x0 DUP1 REVERT JUMPDEST POP PUSH2 0x22B PUSH2 0x9E8 JUMP JUMPDEST PUSH1 0x40 MLOAD PUSH2 0x238 SWAP2 SWAP1 PUSH2 0x2270 JUMP JUMPDEST PUSH1 0x40 MLOAD DUP1 SWAP2 SUB SWAP1 RETURN JUMPDEST CALLVALUE DUP1 ISZERO PUSH2 0x24D JUMPI PUSH1 0x0 DUP1 REVERT JUMPDEST POP PUSH2 0x268 PUSH1 0x4 DUP1 CALLDATASIZE SUB DUP2 ADD SWAP1 PUSH2 0x263 SWAP2 SWAP1 PUSH2 0x1641 JUMP JUMPDEST PUSH2 0x9EE JUMP JUMPDEST STOP JUMPDEST CALLVALUE DUP1 ISZERO PUSH2 0x276 JUMPI PUSH1 0x0 DUP1 REVERT JUMPDEST POP PUSH2 0x291 PUSH1 0x4 DUP1 CALLDATASIZE SUB DUP2 ADD SWAP1 PUSH2 0x28C SWAP2 SWAP1 PUSH2 0x16B9 JUMP JUMPDEST PUSH2 0xBA7 JUMP JUMPDEST STOP JUMPDEST CALLVALUE DUP1 ISZERO PUSH2 0x29F JUMPI PUSH1 0x0 DUP1 REVERT JUMPDEST POP PUSH2 0x2BA PUSH1 0x4 DUP1 CALLDATASIZE SUB DUP2 ADD SWAP1 PUSH2 0x2B5 SWAP2 SWAP1 PUSH2 0x16F5 JUMP JUMPDEST PUSH2 0xF49 JUMP JUMPDEST STOP JUMPDEST CALLVALUE DUP1 ISZERO PUSH2 0x2C8 JUMPI PUSH1 0x0 DUP1 REVERT JUMPDEST POP PUSH2 0x2D1 PUSH2 0x11FD JUMP JUMPDEST PUSH1 0x40 MLOAD PUSH2 0x2DE SWAP2 SWAP1 PUSH2 0x2270 JUMP JUMPDEST PUSH1 0x40 MLOAD DUP1 SWAP2 SUB SWAP1 RETURN JUMPDEST PUSH1 0x2 PUSH1 0x0 SWAP1 SLOAD SWAP1 PUSH2 0x100 EXP SWAP1 DIV PUSH20 0xFFFFFFFFFFFFFFFFFFFFFFFFFFFFFFFFFFFFFFFF AND DUP2 JUMP JUMPDEST PUSH1 0x0 DUP1 PUSH1 0x0 DUP4 DUP2 MSTORE PUSH1 0x20 ADD SWAP1 DUP2 MSTORE PUSH1 0x20 ADD PUSH1 0x0 KECCAK256 SWAP1 POP PUSH2 0x32C DUP3 PUSH2 0x1203 JUMP JUMPDEST PUSH2 0x36B JUMPI PUSH1 0x40 MLOAD PUSH32 0x8C379A000000000000000000000000000000000000000000000000000000000 DUP2 MSTORE PUSH1 0x4 ADD PUSH2 0x362 SWAP1 PUSH2 0x2042 JUMP JUMPDEST PUSH1 0x40 MLOAD DUP1 SWAP2 SUB SWAP1 REVERT JUMPDEST DUP1 PUSH1 0x1 ADD SLOAD PUSH1 0x2 MUL DUP2 PUSH1 0x0 ADD SLOAD ADD TIMESTAMP LT ISZERO PUSH2 0x3BB JUMPI PUSH1 0x40 MLOAD PUSH32 0x8C379A000000000000000000000000000000000000000000000000000000000 DUP2 MSTORE PUSH1 0x4 ADD PUSH2 0x3B2 SWAP1 PUSH2 0x20C2 JUMP JUMPDEST PUSH1 0x40 MLOAD DUP1 SWAP2 SUB SWAP1 REVERT JUMPDEST PUSH1 0x0 DUP1 DUP3 PUSH1 0x4 ADD PUSH1 0x0 SWAP1 SLOAD SWAP1 PUSH2 0x100 EXP SWAP1 DIV DUP1 PUSH1 0x20 SHR PUSH20 0xFFFFFFFFFFFFFFFFFFFFFFFFFFFFFFFFFFFFFFFF AND SWAP1 PUSH4 0xFFFFFFFF AND SWAP2 POP SWAP2 POP PUSH2 0x3FB DUP5 PUSH2 0x1224 JUMP JUMPDEST DUP2 DUP2 DUP6 PUSH1 0x40 MLOAD DUP3 PUSH4 0xFFFFFFFF AND PUSH1 0xE0 SHL DUP2 MSTORE PUSH1 0x4 ADD PUSH2 0x41A SWAP2 SWAP1 PUSH2 0x1F5E JUMP JUMPDEST PUSH1 0x0 PUSH1 0x40 MLOAD DUP1 DUP4 SUB DUP2 PUSH1 0x0 DUP8 DUP1 EXTCODESIZE ISZERO DUP1 ISZERO PUSH2 0x434 JUMPI PUSH1 0x0 DUP1 REVERT JUMPDEST POP GAS CALL SWAP3 POP POP POP DUP1 ISZERO PUSH2 0x445 JUMPI POP PUSH1 0x1 JUMPDEST PUSH2 0x485 JUMPI PUSH32 0xAA4B482A01306AD9E95D99E26F1EFF1DA2AB4CDDAEEE1C6E64C257843A99166 DUP5 PUSH1 0x40 MLOAD PUSH2 0x478 SWAP2 SWAP1 PUSH2 0x1F5E JUMP JUMPDEST PUSH1 0x40 MLOAD DUP1 SWAP2 SUB SWAP1 LOG1 PUSH2 0x4BD JUMP JUMPDEST PUSH32 0xAA4B482A01306AD9E95D99E26F1EFF1DA2AB4CDDAEEE1C6E64C257843A99166 DUP5 PUSH1 0x40 MLOAD PUSH2 0x4B4 SWAP2 SWAP1 PUSH2 0x1F5E JUMP JUMPDEST PUSH1 0x40 MLOAD DUP1 SWAP2 SUB SWAP1 LOG1 JUMPDEST POP POP POP POP JUMP JUMPDEST PUSH2 0x4CB PUSH2 0x13CA JUMP JUMPDEST PUSH1 0x0 DUP1 DUP4 DUP2 MSTORE PUSH1 0x20 ADD SWAP1 DUP2 MSTORE PUSH1 0x20 ADD PUSH1 0x0 KECCAK256 PUSH1 0x40 MLOAD DUP1 PUSH1 0xA0 ADD PUSH1 0x40 MSTORE SWAP1 DUP2 PUSH1 0x0 DUP3 ADD SLOAD DUP2 MSTORE PUSH1 0x20 ADD PUSH1 0x1 DUP3 ADD SLOAD DUP2 MSTORE PUSH1 0x20 ADD PUSH1 0x2 DUP3 ADD DUP1 SLOAD DUP1 PUSH1 0x20 MUL PUSH1 0x20 ADD PUSH1 0x40 MLOAD SWAP1 DUP2 ADD PUSH1 0x40 MSTORE DUP1 SWAP3 SWAP2 SWAP1 DUP2 DUP2 MSTORE PUSH1 0x20 ADD DUP3 DUP1 SLOAD DUP1 ISZERO PUSH2 0x54B JUMPI PUSH1 0x20 MUL DUP3 ADD SWAP2 SWAP1 PUSH1 0x0 MSTORE PUSH1 0x20 PUSH1 0x0 KECCAK256 SWAP1 JUMPDEST DUP2 SLOAD DUP2 MSTORE PUSH1 0x20 ADD SWAP1 PUSH1 0x1 ADD SWAP1 DUP1 DUP4 GT PUSH2 0x537 JUMPI JUMPDEST POP POP POP POP POP DUP2 MSTORE PUSH1 0x20 ADD PUSH1 0x3 DUP3 ADD PUSH1 0x0 SWAP1 SLOAD SWAP1 PUSH2 0x100 EXP SWAP1 DIV DUP1 PUSH1 0x20 SHR PUSH20 0xFFFFFFFFFFFFFFFFFFFFFFFFFFFFFFFFFFFFFFFF AND SWAP1 PUSH4 0xFFFFFFFF AND PUSH24 0xFFFFFFFFFFFFFFFFFFFFFFFFFFFFFFFFFFFFFFFFFFFFFFFF AND PUSH4 0xFFFFFFFF AND SWAP1 PUSH1 0x20 SHL OR PUSH1 0x40 SHL DUP2 MSTORE PUSH1 0x20 ADD PUSH1 0x4 DUP3 ADD PUSH1 0x0 SWAP1 SLOAD SWAP1 PUSH2 0x100 EXP SWAP1 DIV DUP1 PUSH1 0x20 SHR PUSH20 0xFFFFFFFFFFFFFFFFFFFFFFFFFFFFFFFFFFFFFFFF AND SWAP1 PUSH4 0xFFFFFFFF AND PUSH24 0xFFFFFFFFFFFFFFFFFFFFFFFFFFFFFFFFFFFFFFFFFFFFFFFF AND PUSH4 0xFFFFFFFF AND SWAP1 PUSH1 0x20 SHL OR PUSH1 0x40 SHL DUP2 MSTORE POP POP SWAP1 POP SWAP2 SWAP1 POP JUMP JUMPDEST PUSH2 0x61D PUSH2 0x1417 JUMP JUMPDEST PUSH1 0x1 PUSH1 0x0 DUP4 DUP2 MSTORE PUSH1 0x20 ADD SWAP1 DUP2 MSTORE PUSH1 0x20 ADD PUSH1 0x0 KECCAK256 PUSH1 0x40 MLOAD DUP1 PUSH1 0x60 ADD PUSH1 0x40 MSTORE SWAP1 DUP2 PUSH1 0x0 DUP3 ADD PUSH1 0x0 SWAP1 SLOAD SWAP1 PUSH2 0x100 EXP SWAP1 DIV PUSH20 0xFFFFFFFFFFFFFFFFFFFFFFFFFFFFFFFFFFFFFFFF AND PUSH20 0xFFFFFFFFFFFFFFFFFFFFFFFFFFFFFFFFFFFFFFFF AND PUSH20 0xFFFFFFFFFFFFFFFFFFFFFFFFFFFFFFFFFFFFFFFF AND DUP2 MSTORE PUSH1 0x20 ADD PUSH1 0x0 DUP3 ADD PUSH1 0x14 SWAP1 SLOAD SWAP1 PUSH2 0x100 EXP SWAP1 DIV PUSH1 0xFF AND ISZERO ISZERO ISZERO ISZERO DUP2 MSTORE PUSH1 0x20 ADD PUSH1 0x1 DUP3 ADD SLOAD DUP2 MSTORE POP POP SWAP1 POP SWAP2 SWAP1 POP JUMP JUMPDEST PUSH1 0x0 PUSH1 0x20 MSTORE DUP1 PUSH1 0x0 MSTORE PUSH1 0x40 PUSH1 0x0 KECCAK256 PUSH1 0x0 SWAP2 POP SWAP1 POP DUP1 PUSH1 0x0 ADD SLOAD SWAP1 DUP1 PUSH1 0x1 ADD SLOAD SWAP1 DUP1 PUSH1 0x3 ADD PUSH1 0x0 SWAP1 SLOAD SWAP1 PUSH2 0x100 EXP SWAP1 DIV DUP1 PUSH1 0x20 SHR PUSH20 0xFFFFFFFFFFFFFFFFFFFFFFFFFFFFFFFFFFFFFFFF AND SWAP1 PUSH4 0xFFFFFFFF AND SWAP1 SWAP2 DUP1 PUSH1 0x4 ADD PUSH1 0x0 SWAP1 SLOAD SWAP1 PUSH2 0x100 EXP SWAP1 DIV DUP1 PUSH1 0x20 SHR PUSH20 0xFFFFFFFFFFFFFFFFFFFFFFFFFFFFFFFFFFFFFFFF AND SWAP1 PUSH4 0xFFFFFFFF AND SWAP1 SWAP2 POP DUP7 JUMP JUMPDEST PUSH1 0x0 DUP1 PUSH1 0x0 DUP5 DUP2 MSTORE PUSH1 0x20 ADD SWAP1 DUP2 MSTORE PUSH1 0x20 ADD PUSH1 0x0 KECCAK256 SWAP1 POP PUSH1 0x0 PUSH1 0x1 PUSH1 0x0 DUP5 DUP2 MSTORE PUSH1 0x20 ADD SWAP1 DUP2 MSTORE PUSH1 0x20 ADD PUSH1 0x0 KECCAK256 SWAP1 POP PUSH1 0x3 SLOAD CALLVALUE LT ISZERO PUSH2 0x7B7 JUMPI PUSH1 0x40 MLOAD PUSH32 0x8C379A000000000000000000000000000000000000000000000000000000000 DUP2 MSTORE PUSH1 0x4 ADD PUSH2 0x7AE SWAP1 PUSH2 0x2062 JUMP JUMPDEST PUSH1 0x40 MLOAD DUP1 SWAP2 SUB SWAP1 REVERT JUMPDEST PUSH2 0x7C0 DUP5 PUSH2 0x1203 JUMP JUMPDEST PUSH2 0x7FF JUMPI PUSH1 0x40 MLOAD PUSH32 0x8C379A000000000000000000000000000000000000000000000000000000000 DUP2 MSTORE PUSH1 0x4 ADD PUSH2 0x7F6 SWAP1 PUSH2 0x20A2 JUMP JUMPDEST PUSH1 0x40 MLOAD DUP1 SWAP2 SUB SWAP1 REVERT JUMPDEST PUSH2 0x808 DUP4 PUSH2 0x136F JUMP JUMPDEST ISZERO PUSH2 0x848 JUMPI PUSH1 0x40 MLOAD PUSH32 0x8C379A000000000000000000000000000000000000000000000000000000000 DUP2 MSTORE PUSH1 0x4 ADD PUSH2 0x83F SWAP1 PUSH2 0x2082 JUMP JUMPDEST PUSH1 0x40 MLOAD DUP1 SWAP2 SUB SWAP1 REVERT JUMPDEST PUSH2 0x851 DUP5 PUSH2 0x1394 JUMP JUMPDEST PUSH2 0x890 JUMPI PUSH1 0x40 MLOAD PUSH32 0x8C379A000000000000000000000000000000000000000000000000000000000 DUP2 MSTORE PUSH1 0x4 ADD PUSH2 0x887 SWAP1 PUSH2 0x2022 JUMP JUMPDEST PUSH1 0x40 MLOAD DUP1 SWAP2 SUB SWAP1 REVERT JUMPDEST PUSH1 0x4 SLOAD DUP3 PUSH1 0x2 ADD DUP1 SLOAD SWAP1 POP LT PUSH2 0x8DB JUMPI PUSH1 0x40 MLOAD PUSH32 0x8C379A000000000000000000000000000000000000000000000000000000000 DUP2 MSTORE PUSH1 0x4 ADD PUSH2 0x8D2 SWAP1 PUSH2 0x2182 JUMP JUMPDEST PUSH1 0x40 MLOAD DUP1 SWAP2 SUB SWAP1 REVERT JUMPDEST DUP2 PUSH1 0x2 ADD DUP4 SWAP1 DUP1 PUSH1 0x1 DUP2 SLOAD ADD DUP1 DUP3 SSTORE DUP1 SWAP2 POP POP PUSH1 0x1 SWAP1 SUB SWAP1 PUSH1 0x0 MSTORE PUSH1 0x20 PUSH1 0x0 KECCAK256 ADD PUSH1 0x0 SWAP1 SWAP2 SWAP1 SWAP2 SWAP1 SWAP2 POP SSTORE CALLER DUP2 PUSH1 0x0 ADD PUSH1 0x0 PUSH2 0x100 EXP DUP2 SLOAD DUP2 PUSH20 0xFFFFFFFFFFFFFFFFFFFFFFFFFFFFFFFFFFFFFFFF MUL NOT AND SWAP1 DUP4 PUSH20 0xFFFFFFFFFFFFFFFFFFFFFFFFFFFFFFFFFFFFFFFF AND MUL OR SWAP1 SSTORE POP DUP4 DUP2 PUSH1 0x1 ADD DUP2 SWAP1 SSTORE POP PUSH32 0x4CAB1E0F6E8CACD7B85C78D46B9E31A7449F5A33C10C9F6F8A8C5B2CC1406ED4 DUP5 DUP5 PUSH1 0x40 MLOAD PUSH2 0x983 SWAP3 SWAP2 SWAP1 PUSH2 0x1F79 JUMP JUMPDEST PUSH1 0x40 MLOAD DUP1 SWAP2 SUB SWAP1 LOG1 POP POP POP POP JUMP JUMPDEST PUSH1 0x1 PUSH1 0x20 MSTORE DUP1 PUSH1 0x0 MSTORE PUSH1 0x40 PUSH1 0x0 KECCAK256 PUSH1 0x0 SWAP2 POP SWAP1 POP DUP1 PUSH1 0x0 ADD PUSH1 0x0 SWAP1 SLOAD SWAP1 PUSH2 0x100 EXP SWAP1 DIV PUSH20 0xFFFFFFFFFFFFFFFFFFFFFFFFFFFFFFFFFFFFFFFF AND SWAP1 DUP1 PUSH1 0x0 ADD PUSH1 0x14 SWAP1 SLOAD SWAP1 PUSH2 0x100 EXP SWAP1 DIV PUSH1 0xFF AND SWAP1 DUP1 PUSH1 0x1 ADD SLOAD SWAP1 POP DUP4 JUMP JUMPDEST PUSH1 0x4 SLOAD DUP2 JUMP JUMPDEST PUSH1 0x0 PUSH1 0x1 PUSH1 0x0 DUP5 DUP2 MSTORE PUSH1 0x20 ADD SWAP1 DUP2 MSTORE PUSH1 0x20 ADD PUSH1 0x0 KECCAK256 SWAP1 POP PUSH2 0xA0E DUP4 PUSH2 0x136F JUMP JUMPDEST PUSH2 0xA4D JUMPI PUSH1 0x40 MLOAD PUSH32 0x8C379A000000000000000000000000000000000000000000000000000000000 DUP2 MSTORE PUSH1 0x4 ADD PUSH2 0xA44 SWAP1 PUSH2 0x2142 JUMP JUMPDEST PUSH1 0x40 MLOAD DUP1 SWAP2 SUB SWAP1 REVERT JUMPDEST PUSH1 0x2 PUSH1 0x0 SWAP1 SLOAD SWAP1 PUSH2 0x100 EXP SWAP1 DIV PUSH20 0xFFFFFFFFFFFFFFFFFFFFFFFFFFFFFFFFFFFFFFFF AND PUSH20 0xFFFFFFFFFFFFFFFFFFFFFFFFFFFFFFFFFFFFFFFF AND CALLER PUSH20 0xFFFFFFFFFFFFFFFFFFFFFFFFFFFFFFFFFFFFFFFF AND EQ PUSH2 0xADD JUMPI PUSH1 0x40 MLOAD PUSH32 0x8C379A000000000000000000000000000000000000000000000000000000000 DUP2 MSTORE PUSH1 0x4 ADD PUSH2 0xAD4 SWAP1 PUSH2 0x2002 JUMP JUMPDEST PUSH1 0x40 MLOAD DUP1 SWAP2 SUB SWAP1 REVERT JUMPDEST PUSH1 0x1 DUP2 PUSH1 0x0 ADD PUSH1 0x14 PUSH2 0x100 EXP DUP2 SLOAD DUP2 PUSH1 0xFF MUL NOT AND SWAP1 DUP4 ISZERO ISZERO MUL OR SWAP1 SSTORE POP DUP2 PUSH20 0xFFFFFFFFFFFFFFFFFFFFFFFFFFFFFFFFFFFFFFFF AND PUSH1 0x3 SLOAD PUSH1 0x40 MLOAD PUSH2 0xB20 SWAP1 PUSH2 0x1EF7 JUMP JUMPDEST PUSH1 0x0 PUSH1 0x40 MLOAD DUP1 DUP4 SUB DUP2 DUP6 DUP8 GAS CALL SWAP3 POP POP POP RETURNDATASIZE DUP1 PUSH1 0x0 DUP2 EQ PUSH2 0xB5D JUMPI PUSH1 0x40 MLOAD SWAP2 POP PUSH1 0x1F NOT PUSH1 0x3F RETURNDATASIZE ADD AND DUP3 ADD PUSH1 0x40 MSTORE RETURNDATASIZE DUP3 MSTORE RETURNDATASIZE PUSH1 0x0 PUSH1 0x20 DUP5 ADD RETURNDATACOPY PUSH2 0xB62 JUMP JUMPDEST PUSH1 0x60 SWAP2 POP JUMPDEST POP POP POP PUSH32 0xD0F952EAB2E887527CA51BDF015B918E4E99D8BD87E995D2F090C93631330687 DUP2 PUSH1 0x1 ADD SLOAD DUP5 PUSH1 0x40 MLOAD PUSH2 0xB9A SWAP3 SWAP2 SWAP1 PUSH2 0x1F79 JUMP JUMPDEST PUSH1 0x40 MLOAD DUP1 SWAP2 SUB SWAP1 LOG1 POP POP POP JUMP JUMPDEST PUSH1 0x0 PUSH1 0x1 PUSH1 0x0 DUP5 DUP2 MSTORE PUSH1 0x20 ADD SWAP1 DUP2 MSTORE PUSH1 0x20 ADD PUSH1 0x0 KECCAK256 SWAP1 POP PUSH1 0x0 DUP1 PUSH1 0x0 DUP4 PUSH1 0x1 ADD SLOAD DUP2 MSTORE PUSH1 0x20 ADD SWAP1 DUP2 MSTORE PUSH1 0x20 ADD PUSH1 0x0 KECCAK256 SWAP1 POP PUSH2 0xBE5 DUP3 PUSH1 0x1 ADD SLOAD PUSH2 0x1203 JUMP JUMPDEST DUP1 ISZERO PUSH2 0xBF6 JUMPI POP PUSH2 0xBF5 DUP5 PUSH2 0x136F JUMP JUMPDEST JUMPDEST PUSH2 0xC35 JUMPI PUSH1 0x40 MLOAD PUSH32 0x8C379A000000000000000000000000000000000000000000000000000000000 DUP2 MSTORE PUSH1 0x4 ADD PUSH2 0xC2C SWAP1 PUSH2 0x21A2 JUMP JUMPDEST PUSH1 0x40 MLOAD DUP1 SWAP2 SUB SWAP1 REVERT JUMPDEST DUP1 PUSH1 0x1 ADD SLOAD DUP2 PUSH1 0x0 ADD SLOAD ADD TIMESTAMP LT ISZERO PUSH2 0xC82 JUMPI PUSH1 0x40 MLOAD PUSH32 0x8C379A000000000000000000000000000000000000000000000000000000000 DUP2 MSTORE PUSH1 0x4 ADD PUSH2 0xC79 SWAP1 PUSH2 0x20E2 JUMP JUMPDEST PUSH1 0x40 MLOAD DUP1 SWAP2 SUB SWAP1 REVERT JUMPDEST DUP4 PUSH20 0x0 PUSH4 0xD14345A1 DUP6 PUSH1 0x40 MLOAD DUP3 PUSH4 0xFFFFFFFF AND PUSH1 0xE0 SHL DUP2 MSTORE PUSH1 0x4 ADD PUSH2 0xCBA SWAP2 SWAP1 PUSH2 0x21FD JUMP JUMPDEST PUSH1 0x20 PUSH1 0x40 MLOAD DUP1 DUP4 SUB DUP2 DUP7 DUP1 EXTCODESIZE ISZERO DUP1 ISZERO PUSH2 0xCD2 JUMPI PUSH1 0x0 DUP1 REVERT JUMPDEST POP GAS DELEGATECALL ISZERO DUP1 ISZERO PUSH2 0xCE6 JUMPI RETURNDATASIZE PUSH1 0x0 DUP1 RETURNDATACOPY RETURNDATASIZE PUSH1 0x0 REVERT JUMPDEST POP POP POP POP PUSH1 0x40 MLOAD RETURNDATASIZE PUSH1 0x1F NOT PUSH1 0x1F DUP3 ADD AND DUP3 ADD DUP1 PUSH1 0x40 MSTORE POP DUP2 ADD SWAP1 PUSH2 0xD0A SWAP2 SWAP1 PUSH2 0x1618 JUMP JUMPDEST EQ PUSH2 0xD4A JUMPI PUSH1 0x40 MLOAD PUSH32 0x8C379A000000000000000000000000000000000000000000000000000000000 DUP2 MSTORE PUSH1 0x4 ADD PUSH2 0xD41 SWAP1 PUSH2 0x2162 JUMP JUMPDEST PUSH1 0x40 MLOAD DUP1 SWAP2 SUB SWAP1 REVERT JUMPDEST DUP2 PUSH1 0x0 ADD PUSH1 0x14 SWAP1 SLOAD SWAP1 PUSH2 0x100 EXP SWAP1 DIV PUSH1 0xFF AND ISZERO PUSH2 0xD9C JUMPI PUSH1 0x40 MLOAD PUSH32 0x8C379A000000000000000000000000000000000000000000000000000000000 DUP2 MSTORE PUSH1 0x4 ADD PUSH2 0xD93 SWAP1 PUSH2 0x2102 JUMP JUMPDEST PUSH1 0x40 MLOAD DUP1 SWAP2 SUB SWAP1 REVERT JUMPDEST PUSH1 0x0 DUP3 PUSH1 0x1 ADD SLOAD SWAP1 POP PUSH1 0x0 DUP4 PUSH1 0x0 ADD PUSH1 0x0 SWAP1 SLOAD SWAP1 PUSH2 0x100 EXP SWAP1 DIV PUSH20 0xFFFFFFFFFFFFFFFFFFFFFFFFFFFFFFFFFFFFFFFF AND SWAP1 POP PUSH1 0x0 DUP1 DUP5 PUSH1 0x3 ADD PUSH1 0x0 SWAP1 SLOAD SWAP1 PUSH2 0x100 EXP SWAP1 DIV DUP1 PUSH1 0x20 SHR PUSH20 0xFFFFFFFFFFFFFFFFFFFFFFFFFFFFFFFFFFFFFFFF AND SWAP1 PUSH4 0xFFFFFFFF AND SWAP2 POP SWAP2 POP PUSH2 0xE0E DUP5 PUSH2 0x1224 JUMP JUMPDEST DUP3 PUSH20 0xFFFFFFFFFFFFFFFFFFFFFFFFFFFFFFFFFFFFFFFF AND PUSH1 0x3 SLOAD PUSH1 0x40 MLOAD PUSH2 0xE34 SWAP1 PUSH2 0x1EF7 JUMP JUMPDEST PUSH1 0x0 PUSH1 0x40 MLOAD DUP1 DUP4 SUB DUP2 DUP6 DUP8 GAS CALL SWAP3 POP POP POP RETURNDATASIZE DUP1 PUSH1 0x0 DUP2 EQ PUSH2 0xE71 JUMPI PUSH1 0x40 MLOAD SWAP2 POP PUSH1 0x1F NOT PUSH1 0x3F RETURNDATASIZE ADD AND DUP3 ADD PUSH1 0x40 MSTORE RETURNDATASIZE DUP3 MSTORE RETURNDATASIZE PUSH1 0x0 PUSH1 0x20 DUP5 ADD RETURNDATACOPY PUSH2 0xE76 JUMP JUMPDEST PUSH1 0x60 SWAP2 POP JUMPDEST POP POP POP DUP2 DUP2 DUP6 DUP10 PUSH1 0x40 MLOAD DUP4 PUSH4 0xFFFFFFFF AND PUSH1 0xE0 SHL DUP2 MSTORE PUSH1 0x4 ADD PUSH2 0xE9A SWAP3 SWAP2 SWAP1 PUSH2 0x1FA2 JUMP JUMPDEST PUSH1 0x0 PUSH1 0x40 MLOAD DUP1 DUP4 SUB DUP2 PUSH1 0x0 DUP8 DUP1 EXTCODESIZE ISZERO DUP1 ISZERO PUSH2 0xEB4 JUMPI PUSH1 0x0 DUP1 REVERT JUMPDEST POP GAS CALL SWAP3 POP POP POP DUP1 ISZERO PUSH2 0xEC5 JUMPI POP PUSH1 0x1 JUMPDEST PUSH2 0xF05 JUMPI PUSH32 0xAA4B482A01306AD9E95D99E26F1EFF1DA2AB4CDDAEEE1C6E64C257843A99166 DUP5 PUSH1 0x40 MLOAD PUSH2 0xEF8 SWAP2 SWAP1 PUSH2 0x1F5E JUMP JUMPDEST PUSH1 0x40 MLOAD DUP1 SWAP2 SUB SWAP1 LOG1 PUSH2 0xF3F JUMP JUMPDEST PUSH32 0x6D62DB5FE21E28A1997C556654AAEE3F4097DE7C437F4D3A9AE01250ED21CB92 DUP5 DUP9 PUSH1 0x40 MLOAD PUSH2 0xF36 SWAP3 SWAP2 SWAP1 PUSH2 0x1FA2 JUMP JUMPDEST PUSH1 0x40 MLOAD DUP1 SWAP2 SUB SWAP1 LOG1 JUMPDEST POP POP POP POP POP POP POP POP JUMP JUMPDEST PUSH1 0x0 PUSH20 0x0 PUSH4 0x8561A648 PUSH20 0x0 PUSH4 0x32E7CED DUP11 PUSH1 0x40 MLOAD DUP3 PUSH4 0xFFFFFFFF AND PUSH1 0xE0 SHL DUP2 MSTORE PUSH1 0x4 ADD PUSH2 0xF9C SWAP2 SWAP1 PUSH2 0x223A JUMP JUMPDEST PUSH1 0x20 PUSH1 0x40 MLOAD DUP1 DUP4 SUB DUP2 DUP7 DUP1 EXTCODESIZE ISZERO DUP1 ISZERO PUSH2 0xFB4 JUMPI PUSH1 0x0 DUP1 REVERT JUMPDEST POP GAS DELEGATECALL ISZERO DUP1 ISZERO PUSH2 0xFC8 JUMPI RETURNDATASIZE PUSH1 0x0 DUP1 RETURNDATACOPY RETURNDATASIZE PUSH1 0x0 REVERT JUMPDEST POP POP POP POP PUSH1 0x40 MLOAD RETURNDATASIZE PUSH1 0x1F NOT PUSH1 0x1F DUP3 ADD AND DUP3 ADD DUP1 PUSH1 0x40 MSTORE POP DUP2 ADD SWAP1 PUSH2 0xFEC SWAP2 SWAP1 PUSH2 0x1760 JUMP JUMPDEST PUSH1 0x40 MLOAD DUP3 PUSH4 0xFFFFFFFF AND PUSH1 0xE0 SHL DUP2 MSTORE PUSH1 0x4 ADD PUSH2 0x1008 SWAP2 SWAP1 PUSH2 0x2255 JUMP JUMPDEST PUSH1 0x20 PUSH1 0x40 MLOAD DUP1 DUP4 SUB DUP2 DUP7 DUP1 EXTCODESIZE ISZERO DUP1 ISZERO PUSH2 0x1020 JUMPI PUSH1 0x0 DUP1 REVERT JUMPDEST POP GAS DELEGATECALL ISZERO DUP1 ISZERO PUSH2 0x1034 JUMPI RETURNDATASIZE PUSH1 0x0 DUP1 RETURNDATACOPY RETURNDATASIZE PUSH1 0x0 REVERT JUMPDEST POP POP POP POP PUSH1 0x40 MLOAD RETURNDATASIZE PUSH1 0x1F NOT PUSH1 0x1F DUP3 ADD AND DUP3 ADD DUP1 PUSH1 0x40 MSTORE POP DUP2 ADD SWAP1 PUSH2 0x1058 SWAP2 SWAP1 PUSH2 0x1618 JUMP JUMPDEST SWAP1 POP PUSH1 0x0 DUP1 PUSH1 0x0 DUP4 DUP2 MSTORE PUSH1 0x20 ADD SWAP1 DUP2 MSTORE PUSH1 0x20 ADD PUSH1 0x0 KECCAK256 SWAP1 POP PUSH2 0x1079 DUP3 PUSH2 0x1203 JUMP JUMPDEST ISZERO PUSH2 0x10B9 JUMPI PUSH1 0x40 MLOAD PUSH32 0x8C379A000000000000000000000000000000000000000000000000000000000 DUP2 MSTORE PUSH1 0x4 ADD PUSH2 0x10B0 SWAP1 PUSH2 0x21C2 JUMP JUMPDEST PUSH1 0x40 MLOAD DUP1 SWAP2 SUB SWAP1 REVERT JUMPDEST PUSH1 0x0 DUP8 GT PUSH2 0x10FC JUMPI PUSH1 0x40 MLOAD PUSH32 0x8C379A000000000000000000000000000000000000000000000000000000000 DUP2 MSTORE PUSH1 0x4 ADD PUSH2 0x10F3 SWAP1 PUSH2 0x2122 JUMP JUMPDEST PUSH1 0x40 MLOAD DUP1 SWAP2 SUB SWAP1 REVERT JUMPDEST TIMESTAMP DUP2 PUSH1 0x0 ADD DUP2 SWAP1 SSTORE POP DUP7 DUP2 PUSH1 0x1 ADD DUP2 SWAP1 SSTORE POP DUP6 DUP6 DUP3 PUSH1 0x3 ADD PUSH1 0x0 PUSH2 0x100 EXP DUP2 SLOAD DUP2 PUSH24 0xFFFFFFFFFFFFFFFFFFFFFFFFFFFFFFFFFFFFFFFFFFFFFFFF MUL NOT AND SWAP1 DUP5 DUP5 PUSH4 0xFFFFFFFF AND SWAP1 PUSH20 0xFFFFFFFFFFFFFFFFFFFFFFFFFFFFFFFFFFFFFFFF AND PUSH1 0x20 SHL OR MUL OR SWAP1 SSTORE POP POP DUP4 DUP4 DUP3 PUSH1 0x4 ADD PUSH1 0x0 PUSH2 0x100 EXP DUP2 SLOAD DUP2 PUSH24 0xFFFFFFFFFFFFFFFFFFFFFFFFFFFFFFFFFFFFFFFFFFFFFFFF MUL NOT AND SWAP1 DUP5 DUP5 PUSH4 0xFFFFFFFF AND SWAP1 PUSH20 0xFFFFFFFFFFFFFFFFFFFFFFFFFFFFFFFFFFFFFFFF AND PUSH1 0x20 SHL OR MUL OR SWAP1 SSTORE POP POP PUSH32 0x5E444DADCD62C4DDF9DBA20DDCED81DF419D7CC97B15AB5B5FAE3753E108B2EA DUP3 DUP10 CALLER PUSH1 0x40 MLOAD PUSH2 0x11EB SWAP4 SWAP3 SWAP2 SWAP1 PUSH2 0x1FCB JUMP JUMPDEST PUSH1 0x40 MLOAD DUP1 SWAP2 SUB SWAP1 LOG1 POP POP POP POP POP POP POP POP JUMP JUMPDEST PUSH1 0x3 SLOAD DUP2 JUMP JUMPDEST PUSH1 0x0 DUP1 PUSH1 0x0 DUP1 DUP5 DUP2 MSTORE PUSH1 0x20 ADD SWAP1 DUP2 MSTORE PUSH1 0x20 ADD PUSH1 0x0 KECCAK256 PUSH1 0x0 ADD SLOAD GT SWAP1 POP SWAP2 SWAP1 POP JUMP JUMPDEST PUSH1 0x0 DUP1 SWAP1 POP JUMPDEST PUSH1 0x0 DUP1 DUP4 DUP2 MSTORE PUSH1 0x20 ADD SWAP1 DUP2 MSTORE PUSH1 0x20 ADD PUSH1 0x0 KECCAK256 PUSH1 0x2 ADD DUP1 SLOAD SWAP1 POP DUP2 LT ISZERO PUSH2 0x12E0 JUMPI PUSH1 0x0 DUP1 PUSH1 0x0 DUP5 DUP2 MSTORE PUSH1 0x20 ADD SWAP1 DUP2 MSTORE PUSH1 0x20 ADD PUSH1 0x0 KECCAK256 PUSH1 0x2 ADD DUP3 DUP2 SLOAD DUP2 LT PUSH2 0x126C JUMPI INVALID JUMPDEST SWAP1 PUSH1 0x0 MSTORE PUSH1 0x20 PUSH1 0x0 KECCAK256 ADD SLOAD SWAP1 POP PUSH1 0x1 PUSH1 0x0 DUP3 DUP2 MSTORE PUSH1 0x20 ADD SWAP1 DUP2 MSTORE PUSH1 0x20 ADD PUSH1 0x0 KECCAK256 PUSH1 0x0 DUP1 DUP3 ADD PUSH1 0x0 PUSH2 0x100 EXP DUP2 SLOAD SWAP1 PUSH20 0xFFFFFFFFFFFFFFFFFFFFFFFFFFFFFFFFFFFFFFFF MUL NOT AND SWAP1 SSTORE PUSH1 0x0 DUP3 ADD PUSH1 0x14 PUSH2 0x100 EXP DUP2 SLOAD SWAP1 PUSH1 0xFF MUL NOT AND SWAP1 SSTORE PUSH1 0x1 DUP3 ADD PUSH1 0x0 SWAP1 SSTORE POP POP POP DUP1 DUP1 PUSH1 0x1 ADD SWAP2 POP POP PUSH2 0x122A JUMP JUMPDEST POP PUSH1 0x0 DUP1 DUP3 DUP2 MSTORE PUSH1 0x20 ADD SWAP1 DUP2 MSTORE PUSH1 0x20 ADD PUSH1 0x0 KECCAK256 PUSH1 0x0 DUP1 DUP3 ADD PUSH1 0x0 SWAP1 SSTORE PUSH1 0x1 DUP3 ADD PUSH1 0x0 SWAP1 SSTORE PUSH1 0x2 DUP3 ADD PUSH1 0x0 PUSH2 0x1314 SWAP2 SWAP1 PUSH2 0x1453 JUMP JUMPDEST PUSH1 0x3 DUP3 ADD PUSH1 0x0 PUSH2 0x100 EXP DUP2 SLOAD SWAP1 PUSH24 0xFFFFFFFFFFFFFFFFFFFFFFFFFFFFFFFFFFFFFFFFFFFFFFFF MUL NOT AND SWAP1 SSTORE PUSH1 0x4 DUP3 ADD PUSH1 0x0 PUSH2 0x100 EXP DUP2 SLOAD SWAP1 PUSH24 0xFFFFFFFFFFFFFFFFFFFFFFFFFFFFFFFFFFFFFFFFFFFFFFFF MUL NOT AND SWAP1 SSTORE POP POP POP JUMP JUMPDEST PUSH1 0x0 DUP1 PUSH1 0x0 SHL PUSH1 0x1 PUSH1 0x0 DUP5 DUP2 MSTORE PUSH1 0x20 ADD SWAP1 DUP2 MSTORE PUSH1 0x20 ADD PUSH1 0x0 KECCAK256 PUSH1 0x1 ADD SLOAD GT SWAP1 POP SWAP2 SWAP1 POP JUMP JUMPDEST PUSH1 0x0 DUP1 PUSH1 0x0 DUP1 DUP5 DUP2 MSTORE PUSH1 0x20 ADD SWAP1 DUP2 MSTORE PUSH1 0x20 ADD PUSH1 0x0 KECCAK256 SWAP1 POP PUSH1 0x3 DUP2 PUSH1 0x1 ADD SLOAD DUP2 PUSH2 0x13B9 JUMPI INVALID JUMPDEST DIV DUP2 PUSH1 0x0 ADD SLOAD ADD TIMESTAMP LT SWAP2 POP POP SWAP2 SWAP1 POP JUMP JUMPDEST PUSH1 0x40 MLOAD DUP1 PUSH1 0xA0 ADD PUSH1 0x40 MSTORE DUP1 PUSH1 0x0 DUP2 MSTORE PUSH1 0x20 ADD PUSH1 0x0 DUP2 MSTORE PUSH1 0x20 ADD PUSH1 0x60 DUP2 MSTORE PUSH1 0x20 ADD PUSH1 0x0 DUP1 PUSH4 0xFFFFFFFF AND SWAP1 PUSH1 0x20 SHL OR PUSH1 0x40 SHL DUP2 MSTORE PUSH1 0x20 ADD PUSH1 0x0 DUP1 PUSH4 0xFFFFFFFF AND SWAP1 PUSH1 0x20 SHL OR PUSH1 0x40 SHL DUP2 MSTORE POP SWAP1 JUMP JUMPDEST PUSH1 0x40 MLOAD DUP1 PUSH1 0x60 ADD PUSH1 0x40 MSTORE DUP1 PUSH1 0x0 PUSH20 0xFFFFFFFFFFFFFFFFFFFFFFFFFFFFFFFFFFFFFFFF AND DUP2 MSTORE PUSH1 0x20 ADD PUSH1 0x0 ISZERO ISZERO DUP2 MSTORE PUSH1 0x20 ADD PUSH1 0x0 DUP1 NOT AND DUP2 MSTORE POP SWAP1 JUMP JUMPDEST POP DUP1 SLOAD PUSH1 0x0 DUP3 SSTORE SWAP1 PUSH1 0x0 MSTORE PUSH1 0x20 PUSH1 0x0 KECCAK256 SWAP1 DUP2 ADD SWAP1 PUSH2 0x1471 SWAP2 SWAP1 PUSH2 0x1474 JUMP JUMPDEST POP JUMP JUMPDEST PUSH2 0x1496 SWAP2 SWAP1 JUMPDEST DUP1 DUP3 GT ISZERO PUSH2 0x1492 JUMPI PUSH1 0x0 DUP2 PUSH1 0x0 SWAP1 SSTORE POP PUSH1 0x1 ADD PUSH2 0x147A JUMP JUMPDEST POP SWAP1 JUMP JUMPDEST SWAP1 JUMP JUMPDEST PUSH1 0x0 DUP2 CALLDATALOAD SWAP1 POP PUSH2 0x14A8 DUP2 PUSH2 0x24C3 JUMP JUMPDEST SWAP3 SWAP2 POP POP JUMP JUMPDEST PUSH1 0x0 DUP2 CALLDATALOAD SWAP1 POP PUSH2 0x14BD DUP2 PUSH2 0x24DA JUMP JUMPDEST SWAP3 SWAP2 POP POP JUMP JUMPDEST PUSH1 0x0 DUP2 MLOAD SWAP1 POP PUSH2 0x14D2 DUP2 PUSH2 0x24DA JUMP JUMPDEST SWAP3 SWAP2 POP POP JUMP JUMPDEST PUSH1 0x0 DUP2 CALLDATALOAD SWAP1 POP PUSH2 0x14E7 DUP2 PUSH2 0x24F1 JUMP JUMPDEST SWAP3 SWAP2 POP POP JUMP JUMPDEST PUSH1 0x0 DUP2 MLOAD SWAP1 POP PUSH2 0x14FC DUP2 PUSH2 0x24F1 JUMP JUMPDEST SWAP3 SWAP2 POP POP JUMP JUMPDEST PUSH1 0x0 DUP2 CALLDATALOAD SWAP1 POP PUSH2 0x1511 DUP2 PUSH2 0x2508 JUMP JUMPDEST SWAP3 SWAP2 POP POP JUMP JUMPDEST PUSH1 0x0 DUP1 PUSH2 0x152C PUSH2 0x1527 DUP6 DUP6 PUSH2 0x1502 JUMP JUMPDEST PUSH2 0x249C JUMP JUMPDEST SWAP2 POP SWAP2 POP SWAP3 POP SWAP3 SWAP1 POP JUMP JUMPDEST PUSH1 0x0 DUP2 CALLDATALOAD SWAP1 POP PUSH2 0x1546 DUP2 PUSH2 0x251F JUMP JUMPDEST SWAP3 SWAP2 POP POP JUMP JUMPDEST PUSH1 0x0 DUP1 PUSH2 0x1561 PUSH2 0x155C DUP6 DUP6 PUSH2 0x1537 JUMP JUMPDEST PUSH2 0x249C JUMP JUMPDEST SWAP2 POP SWAP2 POP SWAP3 POP SWAP3 SWAP1 POP JUMP JUMPDEST PUSH1 0x0 PUSH1 0x20 DUP3 DUP5 SUB SLT ISZERO PUSH2 0x157E JUMPI PUSH1 0x0 DUP1 REVERT JUMPDEST DUP2 SWAP1 POP SWAP3 SWAP2 POP POP JUMP JUMPDEST PUSH1 0x0 PUSH1 0x20 DUP3 DUP5 SUB SLT ISZERO PUSH2 0x1599 JUMPI PUSH1 0x0 DUP1 REVERT JUMPDEST DUP2 SWAP1 POP SWAP3 SWAP2 POP POP JUMP JUMPDEST PUSH1 0x0 PUSH1 0x20 DUP3 DUP5 SUB SLT ISZERO PUSH2 0x15B4 JUMPI PUSH1 0x0 DUP1 REVERT JUMPDEST PUSH2 0x15BE PUSH1 0x20 PUSH2 0x22D4 JUMP JUMPDEST SWAP1 POP PUSH1 0x0 PUSH2 0x15CE DUP5 DUP3 DUP6 ADD PUSH2 0x14C3 JUMP JUMPDEST PUSH1 0x0 DUP4 ADD MSTORE POP SWAP3 SWAP2 POP POP JUMP JUMPDEST PUSH1 0x0 DUP2 CALLDATALOAD SWAP1 POP PUSH2 0x15E9 DUP2 PUSH2 0x2536 JUMP JUMPDEST SWAP3 SWAP2 POP POP JUMP JUMPDEST PUSH1 0x0 PUSH1 0x20 DUP3 DUP5 SUB SLT ISZERO PUSH2 0x1601 JUMPI PUSH1 0x0 DUP1 REVERT JUMPDEST PUSH1 0x0 PUSH2 0x160F DUP5 DUP3 DUP6 ADD PUSH2 0x14D8 JUMP JUMPDEST SWAP2 POP POP SWAP3 SWAP2 POP POP JUMP JUMPDEST PUSH1 0x0 PUSH1 0x20 DUP3 DUP5 SUB SLT ISZERO PUSH2 0x162A JUMPI PUSH1 0x0 DUP1 REVERT JUMPDEST PUSH1 0x0 PUSH2 0x1638 DUP5 DUP3 DUP6 ADD PUSH2 0x14ED JUMP JUMPDEST SWAP2 POP POP SWAP3 SWAP2 POP POP JUMP JUMPDEST PUSH1 0x0 DUP1 PUSH1 0x40 DUP4 DUP6 SUB SLT ISZERO PUSH2 0x1654 JUMPI PUSH1 0x0 DUP1 REVERT JUMPDEST PUSH1 0x0 PUSH2 0x1662 DUP6 DUP3 DUP7 ADD PUSH2 0x14D8 JUMP JUMPDEST SWAP3 POP POP PUSH1 0x20 PUSH2 0x1673 DUP6 DUP3 DUP7 ADD PUSH2 0x1499 JUMP JUMPDEST SWAP2 POP POP SWAP3 POP SWAP3 SWAP1 POP JUMP JUMPDEST PUSH1 0x0 DUP1 PUSH1 0x40 DUP4 DUP6 SUB SLT ISZERO PUSH2 0x1690 JUMPI PUSH1 0x0 DUP1 REVERT JUMPDEST PUSH1 0x0 PUSH2 0x169E DUP6 DUP3 DUP7 ADD PUSH2 0x14D8 JUMP JUMPDEST SWAP3 POP POP PUSH1 0x20 PUSH2 0x16AF DUP6 DUP3 DUP7 ADD PUSH2 0x14D8 JUMP JUMPDEST SWAP2 POP POP SWAP3 POP SWAP3 SWAP1 POP JUMP JUMPDEST PUSH1 0x0 DUP1 PUSH1 0x40 DUP4 DUP6 SUB SLT ISZERO PUSH2 0x16CC JUMPI PUSH1 0x0 DUP1 REVERT JUMPDEST PUSH1 0x0 PUSH2 0x16DA DUP6 DUP3 DUP7 ADD PUSH2 0x14D8 JUMP JUMPDEST SWAP3 POP POP PUSH1 0x20 PUSH2 0x16EB DUP6 DUP3 DUP7 ADD PUSH2 0x156C JUMP JUMPDEST SWAP2 POP POP SWAP3 POP SWAP3 SWAP1 POP JUMP JUMPDEST PUSH1 0x0 DUP1 PUSH1 0x0 DUP1 PUSH1 0x0 DUP1 PUSH1 0x80 DUP8 DUP10 SUB SLT ISZERO PUSH2 0x170E JUMPI PUSH1 0x0 DUP1 REVERT JUMPDEST PUSH1 0x0 PUSH2 0x171C DUP10 DUP3 DUP11 ADD PUSH2 0x1587 JUMP JUMPDEST SWAP7 POP POP PUSH1 0x20 PUSH2 0x172D DUP10 DUP3 DUP11 ADD PUSH2 0x15DA JUMP JUMPDEST SWAP6 POP POP PUSH1 0x40 PUSH2 0x173E DUP10 DUP3 DUP11 ADD PUSH2 0x1517 JUMP JUMPDEST SWAP5 POP SWAP5 POP POP PUSH1 0x60 PUSH2 0x1751 DUP10 DUP3 DUP11 ADD PUSH2 0x154C JUMP JUMPDEST SWAP3 POP SWAP3 POP POP SWAP3 SWAP6 POP SWAP3 SWAP6 POP SWAP3 SWAP6 JUMP JUMPDEST PUSH1 0x0 PUSH1 0x20 DUP3 DUP5 SUB SLT ISZERO PUSH2 0x1772 JUMPI PUSH1 0x0 DUP1 REVERT JUMPDEST PUSH1 0x0 PUSH2 0x1780 DUP5 DUP3 DUP6 ADD PUSH2 0x15A2 JUMP JUMPDEST SWAP2 POP POP SWAP3 SWAP2 POP POP JUMP JUMPDEST PUSH1 0x0 PUSH2 0x1795 DUP4 DUP4 PUSH2 0x1859 JUMP JUMPDEST PUSH1 0x20 DUP4 ADD SWAP1 POP SWAP3 SWAP2 POP POP JUMP JUMPDEST PUSH2 0x17AA DUP2 PUSH2 0x2432 JUMP JUMPDEST DUP3 MSTORE POP POP JUMP JUMPDEST PUSH2 0x17B9 DUP2 PUSH2 0x236D JUMP JUMPDEST DUP3 MSTORE POP POP JUMP JUMPDEST PUSH2 0x17C8 DUP2 PUSH2 0x236D JUMP JUMPDEST DUP3 MSTORE POP POP JUMP JUMPDEST PUSH1 0x0 PUSH2 0x17D9 DUP3 PUSH2 0x2311 JUMP JUMPDEST PUSH2 0x17E3 DUP2 DUP6 PUSH2 0x2329 JUMP JUMPDEST SWAP4 POP PUSH2 0x17EE DUP4 PUSH2 0x2301 JUMP JUMPDEST DUP1 PUSH1 0x0 JUMPDEST DUP4 DUP2 LT ISZERO PUSH2 0x181F JUMPI DUP2 MLOAD PUSH2 0x1806 DUP9 DUP3 PUSH2 0x1789 JUMP JUMPDEST SWAP8 POP PUSH2 0x1811 DUP4 PUSH2 0x231C JUMP JUMPDEST SWAP3 POP POP PUSH1 0x1 DUP2 ADD SWAP1 POP PUSH2 0x17F2 JUMP JUMPDEST POP DUP6 SWAP4 POP POP POP POP SWAP3 SWAP2 POP POP JUMP JUMPDEST PUSH2 0x1835 DUP2 PUSH2 0x237F JUMP JUMPDEST DUP3 MSTORE POP POP JUMP JUMPDEST PUSH2 0x1844 DUP2 PUSH2 0x237F JUMP JUMPDEST DUP3 MSTORE POP POP JUMP JUMPDEST PUSH2 0x1853 DUP2 PUSH2 0x237F JUMP JUMPDEST DUP3 MSTORE POP POP JUMP JUMPDEST PUSH2 0x1862 DUP2 PUSH2 0x23B7 JUMP JUMPDEST DUP3 MSTORE POP POP JUMP JUMPDEST PUSH2 0x1871 DUP2 PUSH2 0x23B7 JUMP JUMPDEST DUP3 MSTORE POP POP JUMP JUMPDEST PUSH2 0x1880 DUP2 PUSH2 0x23C1 JUMP JUMPDEST DUP3 MSTORE POP POP JUMP JUMPDEST PUSH2 0x1890 DUP3 DUP3 PUSH2 0x240F JUMP JUMPDEST DUP4 MSTORE POP POP POP JUMP JUMPDEST PUSH2 0x18A0 DUP2 PUSH2 0x23D3 JUMP JUMPDEST DUP3 MSTORE POP POP JUMP JUMPDEST PUSH2 0x18B0 DUP3 DUP3 PUSH2 0x240F JUMP JUMPDEST DUP4 MSTORE POP POP POP JUMP JUMPDEST PUSH1 0x0 PUSH2 0x18C4 PUSH1 0x1E DUP4 PUSH2 0x2345 JUMP JUMPDEST SWAP2 POP PUSH32 0x4F6E6C7920636F7572742063616E2066616C7369667920616E73776572730000 PUSH1 0x0 DUP4 ADD MSTORE PUSH1 0x20 DUP3 ADD SWAP1 POP SWAP2 SWAP1 POP JUMP JUMPDEST PUSH1 0x0 PUSH2 0x1904 PUSH1 0x4A DUP4 PUSH2 0x2345 JUMP JUMPDEST SWAP2 POP PUSH32 0x5468657265206973206E6F7420656E6F6775682074696D65206C65667420666F PUSH1 0x0 DUP4 ADD MSTORE PUSH32 0x72207375626D697474696E67206E657720616E737765727320746F2074686973 PUSH1 0x20 DUP4 ADD MSTORE PUSH32 0x207175657374696F6E2E00000000000000000000000000000000000000000000 PUSH1 0x40 DUP4 ADD MSTORE PUSH1 0x60 DUP3 ADD SWAP1 POP SWAP2 SWAP1 POP JUMP JUMPDEST PUSH1 0x0 PUSH2 0x1990 PUSH1 0x14 DUP4 PUSH2 0x2345 JUMP JUMPDEST SWAP2 POP PUSH32 0x5175657374696F6E206D7573742065786973742E000000000000000000000000 PUSH1 0x0 DUP4 ADD MSTORE PUSH1 0x20 DUP3 ADD SWAP1 POP SWAP2 SWAP1 POP JUMP JUMPDEST PUSH1 0x0 PUSH2 0x19D0 PUSH1 0x16 DUP4 PUSH2 0x2345 JUMP JUMPDEST SWAP2 POP PUSH32 0x4E6F7420656E6F756768207374616B652073656E742E00000000000000000000 PUSH1 0x0 DUP4 ADD MSTORE PUSH1 0x20 DUP3 ADD SWAP1 POP SWAP2 SWAP1 POP JUMP JUMPDEST PUSH1 0x0 PUSH2 0x1A10 PUSH1 0x16 DUP4 PUSH2 0x2345 JUMP JUMPDEST SWAP2 POP PUSH32 0x416E7377657220616C7265616479206578697374732E00000000000000000000 PUSH1 0x0 DUP4 ADD MSTORE PUSH1 0x20 DUP3 ADD SWAP1 POP SWAP2 SWAP1 POP JUMP JUMPDEST PUSH1 0x0 PUSH2 0x1A50 PUSH1 0x18 DUP4 PUSH2 0x2345 JUMP JUMPDEST SWAP2 POP PUSH32 0x5175657374696F6E20646F6573206E6F742065786973742E0000000000000000 PUSH1 0x0 DUP4 ADD MSTORE PUSH1 0x20 DUP3 ADD SWAP1 POP SWAP2 SWAP1 POP JUMP JUMPDEST PUSH1 0x0 PUSH2 0x1A90 PUSH1 0x22 DUP4 PUSH2 0x2345 JUMP JUMPDEST SWAP2 POP PUSH32 0x4974206973206E6F74207468652074696D6520746F2067697665207570207965 PUSH1 0x0 DUP4 ADD MSTORE PUSH32 0x742E000000000000000000000000000000000000000000000000000000000000 PUSH1 0x20 DUP4 ADD MSTORE PUSH1 0x40 DUP3 ADD SWAP1 POP SWAP2 SWAP1 POP JUMP JUMPDEST PUSH1 0x0 PUSH2 0x1AF6 PUSH1 0x1F DUP4 PUSH2 0x2345 JUMP JUMPDEST SWAP2 POP PUSH32 0x416E73776572696E67206973207374696C6C20696E2070726F67726573732E00 PUSH1 0x0 DUP4 ADD MSTORE PUSH1 0x20 DUP3 ADD SWAP1 POP SWAP2 SWAP1 POP JUMP JUMPDEST PUSH1 0x0 PUSH2 0x1B36 PUSH1 0x0 DUP4 PUSH2 0x233A JUMP JUMPDEST SWAP2 POP PUSH1 0x0 DUP3 ADD SWAP1 POP SWAP2 SWAP1 POP JUMP JUMPDEST PUSH1 0x0 PUSH2 0x1B50 PUSH1 0x19 DUP4 PUSH2 0x2345 JUMP JUMPDEST SWAP2 POP PUSH32 0x5468697320616E73776572207761732066616C73696669656400000000000000 PUSH1 0x0 DUP4 ADD MSTORE PUSH1 0x20 DUP3 ADD SWAP1 POP SWAP2 SWAP1 POP JUMP JUMPDEST PUSH1 0x0 PUSH2 0x1B90 PUSH1 0x22 DUP4 PUSH2 0x2345 JUMP JUMPDEST SWAP2 POP PUSH32 0x54696D656F7574206D7573742062652067726561746572207468656E207A6572 PUSH1 0x0 DUP4 ADD MSTORE PUSH32 0x6F2E000000000000000000000000000000000000000000000000000000000000 PUSH1 0x20 DUP4 ADD MSTORE PUSH1 0x40 DUP3 ADD SWAP1 POP SWAP2 SWAP1 POP JUMP JUMPDEST PUSH1 0x0 PUSH2 0x1BF6 PUSH1 0x30 DUP4 PUSH2 0x2345 JUMP JUMPDEST SWAP2 POP PUSH32 0x54686520616E7377657220747279696E6720746F2062652066616C7369666965 PUSH1 0x0 DUP4 ADD MSTORE PUSH32 0x6420646F6573206E6F7420657869737400000000000000000000000000000000 PUSH1 0x20 DUP4 ADD MSTORE PUSH1 0x40 DUP3 ADD SWAP1 POP SWAP2 SWAP1 POP JUMP JUMPDEST PUSH1 0x0 PUSH2 0x1C5C PUSH1 0x24 DUP4 PUSH2 0x2345 JUMP JUMPDEST SWAP2 POP PUSH32 0x496D616765206861736820646F6573206E6F74206D6174636820616E73776572 PUSH1 0x0 DUP4 ADD MSTORE PUSH32 0x4B65792E00000000000000000000000000000000000000000000000000000000 PUSH1 0x20 DUP4 ADD MSTORE PUSH1 0x40 DUP3 ADD SWAP1 POP SWAP2 SWAP1 POP JUMP JUMPDEST PUSH1 0x0 PUSH2 0x1CC2 PUSH1 0x1D DUP4 PUSH2 0x2345 JUMP JUMPDEST SWAP2 POP PUSH32 0x416C6C2074686520616E7377657220736C6F7473206172652066756C6C000000 PUSH1 0x0 DUP4 ADD MSTORE PUSH1 0x20 DUP3 ADD SWAP1 POP SWAP2 SWAP1 POP JUMP JUMPDEST PUSH1 0x0 PUSH2 0x1D02 PUSH1 0x20 DUP4 PUSH2 0x2345 JUMP JUMPDEST SWAP2 POP PUSH32 0x5175657374696F6E20616E6420616E73776572206D757374206578697374732E PUSH1 0x0 DUP4 ADD MSTORE PUSH1 0x20 DUP3 ADD SWAP1 POP SWAP2 SWAP1 POP JUMP JUMPDEST PUSH1 0x0 PUSH2 0x1D42 PUSH1 0x18 DUP4 PUSH2 0x2345 JUMP JUMPDEST SWAP2 POP PUSH32 0x5175657374696F6E20616C7265616479206578697374732E0000000000000000 PUSH1 0x0 DUP4 ADD MSTORE PUSH1 0x20 DUP3 ADD SWAP1 POP SWAP2 SWAP1 POP JUMP JUMPDEST PUSH1 0x60 DUP3 ADD PUSH1 0x0 DUP3 ADD MLOAD PUSH2 0x1D8B PUSH1 0x0 DUP6 ADD DUP3 PUSH2 0x17B0 JUMP JUMPDEST POP PUSH1 0x20 DUP3 ADD MLOAD PUSH2 0x1D9E PUSH1 0x20 DUP6 ADD DUP3 PUSH2 0x182C JUMP JUMPDEST POP PUSH1 0x40 DUP3 ADD MLOAD PUSH2 0x1DB1 PUSH1 0x40 DUP6 ADD DUP3 PUSH2 0x1859 JUMP JUMPDEST POP POP POP POP JUMP JUMPDEST PUSH1 0x20 DUP3 ADD PUSH2 0x1DC8 PUSH1 0x0 DUP4 ADD DUP4 PUSH2 0x2356 JUMP JUMPDEST PUSH2 0x1DD5 PUSH1 0x0 DUP6 ADD DUP3 PUSH2 0x182C JUMP JUMPDEST POP POP POP POP JUMP JUMPDEST PUSH1 0x20 DUP3 ADD PUSH2 0x1DEC PUSH1 0x0 DUP4 ADD DUP4 PUSH2 0x2356 JUMP JUMPDEST PUSH2 0x1DF9 PUSH1 0x0 DUP6 ADD DUP3 PUSH2 0x184A JUMP JUMPDEST POP POP POP POP JUMP JUMPDEST PUSH1 0x0 PUSH1 0xA0 DUP4 ADD PUSH1 0x0 DUP4 ADD MLOAD PUSH2 0x1E17 PUSH1 0x0 DUP7 ADD DUP3 PUSH2 0x1ED9 JUMP JUMPDEST POP PUSH1 0x20 DUP4 ADD MLOAD PUSH2 0x1E2A PUSH1 0x20 DUP7 ADD DUP3 PUSH2 0x1ED9 JUMP JUMPDEST POP PUSH1 0x40 DUP4 ADD MLOAD DUP5 DUP3 SUB PUSH1 0x40 DUP7 ADD MSTORE PUSH2 0x1E42 DUP3 DUP3 PUSH2 0x17CE JUMP JUMPDEST SWAP2 POP POP PUSH1 0x60 DUP4 ADD MLOAD PUSH2 0x1E57 PUSH1 0x60 DUP7 ADD DUP3 PUSH2 0x1877 JUMP JUMPDEST POP PUSH1 0x80 DUP4 ADD MLOAD PUSH2 0x1E6A PUSH1 0x80 DUP7 ADD DUP3 PUSH2 0x1897 JUMP JUMPDEST POP DUP1 SWAP2 POP POP SWAP3 SWAP2 POP POP JUMP JUMPDEST PUSH1 0x20 DUP3 ADD PUSH2 0x1E86 PUSH1 0x0 DUP4 ADD DUP4 PUSH2 0x2356 JUMP JUMPDEST PUSH2 0x1E93 PUSH1 0x0 DUP6 ADD DUP3 PUSH2 0x182C JUMP JUMPDEST POP POP POP POP JUMP JUMPDEST PUSH1 0x20 DUP3 ADD PUSH2 0x1EAA PUSH1 0x0 DUP4 ADD DUP4 PUSH2 0x2356 JUMP JUMPDEST PUSH2 0x1EB7 PUSH1 0x0 DUP6 ADD DUP3 PUSH2 0x184A JUMP JUMPDEST POP POP POP POP JUMP JUMPDEST PUSH1 0x20 DUP3 ADD PUSH1 0x0 DUP3 ADD MLOAD PUSH2 0x1ED3 PUSH1 0x0 DUP6 ADD DUP3 PUSH2 0x184A JUMP JUMPDEST POP POP POP POP JUMP JUMPDEST PUSH2 0x1EE2 DUP2 PUSH2 0x2405 JUMP JUMPDEST DUP3 MSTORE POP POP JUMP JUMPDEST PUSH2 0x1EF1 DUP2 PUSH2 0x2405 JUMP JUMPDEST DUP3 MSTORE POP POP JUMP JUMPDEST PUSH1 0x0 PUSH2 0x1F02 DUP3 PUSH2 0x1B29 JUMP JUMPDEST SWAP2 POP DUP2 SWAP1 POP SWAP2 SWAP1 POP JUMP JUMPDEST PUSH1 0x0 PUSH1 0x20 DUP3 ADD SWAP1 POP PUSH2 0x1F21 PUSH1 0x0 DUP4 ADD DUP5 PUSH2 0x17BF JUMP JUMPDEST SWAP3 SWAP2 POP POP JUMP JUMPDEST PUSH1 0x0 PUSH1 0x60 DUP3 ADD SWAP1 POP PUSH2 0x1F3C PUSH1 0x0 DUP4 ADD DUP7 PUSH2 0x17BF JUMP JUMPDEST PUSH2 0x1F49 PUSH1 0x20 DUP4 ADD DUP6 PUSH2 0x183B JUMP JUMPDEST PUSH2 0x1F56 PUSH1 0x40 DUP4 ADD DUP5 PUSH2 0x1868 JUMP JUMPDEST SWAP5 SWAP4 POP POP POP POP JUMP JUMPDEST PUSH1 0x0 PUSH1 0x20 DUP3 ADD SWAP1 POP PUSH2 0x1F73 PUSH1 0x0 DUP4 ADD DUP5 PUSH2 0x1868 JUMP JUMPDEST SWAP3 SWAP2 POP POP JUMP JUMPDEST PUSH1 0x0 PUSH1 0x40 DUP3 ADD SWAP1 POP PUSH2 0x1F8E PUSH1 0x0 DUP4 ADD DUP6 PUSH2 0x1868 JUMP JUMPDEST PUSH2 0x1F9B PUSH1 0x20 DUP4 ADD DUP5 PUSH2 0x1868 JUMP JUMPDEST SWAP4 SWAP3 POP POP POP JUMP JUMPDEST PUSH1 0x0 PUSH1 0x40 DUP3 ADD SWAP1 POP PUSH2 0x1FB7 PUSH1 0x0 DUP4 ADD DUP6 PUSH2 0x1868 JUMP JUMPDEST PUSH2 0x1FC4 PUSH1 0x20 DUP4 ADD DUP5 PUSH2 0x1DB7 JUMP JUMPDEST SWAP4 SWAP3 POP POP POP JUMP JUMPDEST PUSH1 0x0 PUSH1 0x60 DUP3 ADD SWAP1 POP PUSH2 0x1FE0 PUSH1 0x0 DUP4 ADD DUP7 PUSH2 0x1868 JUMP JUMPDEST PUSH2 0x1FED PUSH1 0x20 DUP4 ADD DUP6 PUSH2 0x1E75 JUMP JUMPDEST PUSH2 0x1FFA PUSH1 0x40 DUP4 ADD DUP5 PUSH2 0x17A1 JUMP JUMPDEST SWAP5 SWAP4 POP POP POP POP JUMP JUMPDEST PUSH1 0x0 PUSH1 0x20 DUP3 ADD SWAP1 POP DUP2 DUP2 SUB PUSH1 0x0 DUP4 ADD MSTORE PUSH2 0x201B DUP2 PUSH2 0x18B7 JUMP JUMPDEST SWAP1 POP SWAP2 SWAP1 POP JUMP JUMPDEST PUSH1 0x0 PUSH1 0x20 DUP3 ADD SWAP1 POP DUP2 DUP2 SUB PUSH1 0x0 DUP4 ADD MSTORE PUSH2 0x203B DUP2 PUSH2 0x18F7 JUMP JUMPDEST SWAP1 POP SWAP2 SWAP1 POP JUMP JUMPDEST PUSH1 0x0 PUSH1 0x20 DUP3 ADD SWAP1 POP DUP2 DUP2 SUB PUSH1 0x0 DUP4 ADD MSTORE PUSH2 0x205B DUP2 PUSH2 0x1983 JUMP JUMPDEST SWAP1 POP SWAP2 SWAP1 POP JUMP JUMPDEST PUSH1 0x0 PUSH1 0x20 DUP3 ADD SWAP1 POP DUP2 DUP2 SUB PUSH1 0x0 DUP4 ADD MSTORE PUSH2 0x207B DUP2 PUSH2 0x19C3 JUMP JUMPDEST SWAP1 POP SWAP2 SWAP1 POP JUMP JUMPDEST PUSH1 0x0 PUSH1 0x20 DUP3 ADD SWAP1 POP DUP2 DUP2 SUB PUSH1 0x0 DUP4 ADD MSTORE PUSH2 0x209B DUP2 PUSH2 0x1A03 JUMP JUMPDEST SWAP1 POP SWAP2 SWAP1 POP JUMP JUMPDEST PUSH1 0x0 PUSH1 0x20 DUP3 ADD SWAP1 POP DUP2 DUP2 SUB PUSH1 0x0 DUP4 ADD MSTORE PUSH2 0x20BB DUP2 PUSH2 0x1A43 JUMP JUMPDEST SWAP1 POP SWAP2 SWAP1 POP JUMP JUMPDEST PUSH1 0x0 PUSH1 0x20 DUP3 ADD SWAP1 POP DUP2 DUP2 SUB PUSH1 0x0 DUP4 ADD MSTORE PUSH2 0x20DB DUP2 PUSH2 0x1A83 JUMP JUMPDEST SWAP1 POP SWAP2 SWAP1 POP JUMP JUMPDEST PUSH1 0x0 PUSH1 0x20 DUP3 ADD SWAP1 POP DUP2 DUP2 SUB PUSH1 0x0 DUP4 ADD MSTORE PUSH2 0x20FB DUP2 PUSH2 0x1AE9 JUMP JUMPDEST SWAP1 POP SWAP2 SWAP1 POP JUMP JUMPDEST PUSH1 0x0 PUSH1 0x20 DUP3 ADD SWAP1 POP DUP2 DUP2 SUB PUSH1 0x0 DUP4 ADD MSTORE PUSH2 0x211B DUP2 PUSH2 0x1B43 JUMP JUMPDEST SWAP1 POP SWAP2 SWAP1 POP JUMP JUMPDEST PUSH1 0x0 PUSH1 0x20 DUP3 ADD SWAP1 POP DUP2 DUP2 SUB PUSH1 0x0 DUP4 ADD MSTORE PUSH2 0x213B DUP2 PUSH2 0x1B83 JUMP JUMPDEST SWAP1 POP SWAP2 SWAP1 POP JUMP JUMPDEST PUSH1 0x0 PUSH1 0x20 DUP3 ADD SWAP1 POP DUP2 DUP2 SUB PUSH1 0x0 DUP4 ADD MSTORE PUSH2 0x215B DUP2 PUSH2 0x1BE9 JUMP JUMPDEST SWAP1 POP SWAP2 SWAP1 POP JUMP JUMPDEST PUSH1 0x0 PUSH1 0x20 DUP3 ADD SWAP1 POP DUP2 DUP2 SUB PUSH1 0x0 DUP4 ADD MSTORE PUSH2 0x217B DUP2 PUSH2 0x1C4F JUMP JUMPDEST SWAP1 POP SWAP2 SWAP1 POP JUMP JUMPDEST PUSH1 0x0 PUSH1 0x20 DUP3 ADD SWAP1 POP DUP2 DUP2 SUB PUSH1 0x0 DUP4 ADD MSTORE PUSH2 0x219B DUP2 PUSH2 0x1CB5 JUMP JUMPDEST SWAP1 POP SWAP2 SWAP1 POP JUMP JUMPDEST PUSH1 0x0 PUSH1 0x20 DUP3 ADD SWAP1 POP DUP2 DUP2 SUB PUSH1 0x0 DUP4 ADD MSTORE PUSH2 0x21BB DUP2 PUSH2 0x1CF5 JUMP JUMPDEST SWAP1 POP SWAP2 SWAP1 POP JUMP JUMPDEST PUSH1 0x0 PUSH1 0x20 DUP3 ADD SWAP1 POP DUP2 DUP2 SUB PUSH1 0x0 DUP4 ADD MSTORE PUSH2 0x21DB DUP2 PUSH2 0x1D35 JUMP JUMPDEST SWAP1 POP SWAP2 SWAP1 POP JUMP JUMPDEST PUSH1 0x0 PUSH1 0x60 DUP3 ADD SWAP1 POP PUSH2 0x21F7 PUSH1 0x0 DUP4 ADD DUP5 PUSH2 0x1D75 JUMP JUMPDEST SWAP3 SWAP2 POP POP JUMP JUMPDEST PUSH1 0x0 PUSH1 0x20 DUP3 ADD SWAP1 POP PUSH2 0x2212 PUSH1 0x0 DUP4 ADD DUP5 PUSH2 0x1DDB JUMP JUMPDEST SWAP3 SWAP2 POP POP JUMP JUMPDEST PUSH1 0x0 PUSH1 0x20 DUP3 ADD SWAP1 POP DUP2 DUP2 SUB PUSH1 0x0 DUP4 ADD MSTORE PUSH2 0x2232 DUP2 DUP5 PUSH2 0x1DFF JUMP JUMPDEST SWAP1 POP SWAP3 SWAP2 POP POP JUMP JUMPDEST PUSH1 0x0 PUSH1 0x20 DUP3 ADD SWAP1 POP PUSH2 0x224F PUSH1 0x0 DUP4 ADD DUP5 PUSH2 0x1E99 JUMP JUMPDEST SWAP3 SWAP2 POP POP JUMP JUMPDEST PUSH1 0x0 PUSH1 0x20 DUP3 ADD SWAP1 POP PUSH2 0x226A PUSH1 0x0 DUP4 ADD DUP5 PUSH2 0x1EBD JUMP JUMPDEST SWAP3 SWAP2 POP POP JUMP JUMPDEST PUSH1 0x0 PUSH1 0x20 DUP3 ADD SWAP1 POP PUSH2 0x2285 PUSH1 0x0 DUP4 ADD DUP5 PUSH2 0x1EE8 JUMP JUMPDEST SWAP3 SWAP2 POP POP JUMP JUMPDEST PUSH1 0x0 PUSH1 0x80 DUP3 ADD SWAP1 POP PUSH2 0x22A0 PUSH1 0x0 DUP4 ADD DUP10 PUSH2 0x1EE8 JUMP JUMPDEST PUSH2 0x22AD PUSH1 0x20 DUP4 ADD DUP9 PUSH2 0x1EE8 JUMP JUMPDEST PUSH2 0x22BB PUSH1 0x40 DUP4 ADD DUP7 DUP9 PUSH2 0x1886 JUMP JUMPDEST PUSH2 0x22C9 PUSH1 0x60 DUP4 ADD DUP5 DUP7 PUSH2 0x18A6 JUMP JUMPDEST SWAP8 SWAP7 POP POP POP POP POP POP POP JUMP JUMPDEST PUSH1 0x0 PUSH1 0x40 MLOAD SWAP1 POP DUP2 DUP2 ADD DUP2 DUP2 LT PUSH8 0xFFFFFFFFFFFFFFFF DUP3 GT OR ISZERO PUSH2 0x22F7 JUMPI PUSH1 0x0 DUP1 REVERT JUMPDEST DUP1 PUSH1 0x40 MSTORE POP SWAP2 SWAP1 POP JUMP JUMPDEST PUSH1 0x0 DUP2 SWAP1 POP PUSH1 0x20 DUP3 ADD SWAP1 POP SWAP2 SWAP1 POP JUMP JUMPDEST PUSH1 0x0 DUP2 MLOAD SWAP1 POP SWAP2 SWAP1 POP JUMP JUMPDEST PUSH1 0x0 PUSH1 0x20 DUP3 ADD SWAP1 POP SWAP2 SWAP1 POP JUMP JUMPDEST PUSH1 0x0 DUP3 DUP3 MSTORE PUSH1 0x20 DUP3 ADD SWAP1 POP SWAP3 SWAP2 POP POP JUMP JUMPDEST PUSH1 0x0 DUP2 SWAP1 POP SWAP3 SWAP2 POP POP JUMP JUMPDEST PUSH1 0x0 DUP3 DUP3 MSTORE PUSH1 0x20 DUP3 ADD SWAP1 POP SWAP3 SWAP2 POP POP JUMP JUMPDEST PUSH1 0x0 PUSH2 0x2365 PUSH1 0x20 DUP5 ADD DUP5 PUSH2 0x14AE JUMP JUMPDEST SWAP1 POP SWAP3 SWAP2 POP POP JUMP JUMPDEST PUSH1 0x0 PUSH2 0x2378 DUP3 PUSH2 0x23E5 JUMP JUMPDEST SWAP1 POP SWAP2 SWAP1 POP JUMP JUMPDEST PUSH1 0x0 DUP2 ISZERO ISZERO SWAP1 POP SWAP2 SWAP1 POP JUMP JUMPDEST PUSH1 0x0 PUSH32 0xFFFFFFFFFFFFFFFFFFFFFFFFFFFFFFFFFFFFFFFFFFFFFFFF0000000000000000 DUP3 AND SWAP1 POP SWAP2 SWAP1 POP JUMP JUMPDEST PUSH1 0x0 DUP2 SWAP1 POP SWAP2 SWAP1 POP JUMP JUMPDEST PUSH1 0x0 PUSH2 0x23CC DUP3 PUSH2 0x238B JUMP JUMPDEST SWAP1 POP SWAP2 SWAP1 POP JUMP JUMPDEST PUSH1 0x0 PUSH2 0x23DE DUP3 PUSH2 0x238B JUMP JUMPDEST SWAP1 POP SWAP2 SWAP1 POP JUMP JUMPDEST PUSH1 0x0 PUSH20 0xFFFFFFFFFFFFFFFFFFFFFFFFFFFFFFFFFFFFFFFF DUP3 AND SWAP1 POP SWAP2 SWAP1 POP JUMP JUMPDEST PUSH1 0x0 DUP2 SWAP1 POP SWAP2 SWAP1 POP JUMP JUMPDEST PUSH1 0x0 PUSH2 0x242A PUSH4 0xFFFFFFFF DUP5 AND PUSH2 0x2424 DUP5 PUSH2 0x2468 JUMP JUMPDEST OR PUSH2 0x2475 JUMP JUMPDEST SWAP1 POP SWAP3 SWAP2 POP POP JUMP JUMPDEST PUSH1 0x0 PUSH2 0x243D DUP3 PUSH2 0x2444 JUMP JUMPDEST SWAP1 POP SWAP2 SWAP1 POP JUMP JUMPDEST PUSH1 0x0 PUSH2 0x244F DUP3 PUSH2 0x2456 JUMP JUMPDEST SWAP1 POP SWAP2 SWAP1 POP JUMP JUMPDEST PUSH1 0x0 PUSH2 0x2461 DUP3 PUSH2 0x23E5 JUMP JUMPDEST SWAP1 POP SWAP2 SWAP1 POP JUMP JUMPDEST PUSH1 0x0 DUP2 PUSH1 0x20 SHL SWAP1 POP SWAP2 SWAP1 POP JUMP JUMPDEST PUSH1 0x0 DUP2 PUSH1 0x40 SHL SWAP1 POP SWAP2 SWAP1 POP JUMP JUMPDEST PUSH1 0x0 DUP2 PUSH1 0x20 SHR SWAP1 POP SWAP2 SWAP1 POP JUMP JUMPDEST PUSH1 0x0 DUP2 PUSH1 0x40 SHR SWAP1 POP SWAP2 SWAP1 POP JUMP JUMPDEST PUSH1 0x0 DUP1 PUSH2 0x24A8 DUP4 PUSH2 0x248F JUMP JUMPDEST SWAP3 POP PUSH4 0xFFFFFFFF DUP4 AND SWAP1 POP PUSH2 0x24BC DUP4 PUSH2 0x2482 JUMP JUMPDEST SWAP2 POP SWAP2 POP SWAP2 JUMP JUMPDEST PUSH2 0x24CC DUP2 PUSH2 0x236D JUMP JUMPDEST DUP2 EQ PUSH2 0x24D7 JUMPI PUSH1 0x0 DUP1 REVERT JUMPDEST POP JUMP JUMPDEST PUSH2 0x24E3 DUP2 PUSH2 0x237F JUMP JUMPDEST DUP2 EQ PUSH2 0x24EE JUMPI PUSH1 0x0 DUP1 REVERT JUMPDEST POP JUMP JUMPDEST PUSH2 0x24FA DUP2 PUSH2 0x23B7 JUMP JUMPDEST DUP2 EQ PUSH2 0x2505 JUMPI PUSH1 0x0 DUP1 REVERT JUMPDEST POP JUMP JUMPDEST PUSH2 0x2511 DUP2 PUSH2 0x23C1 JUMP JUMPDEST DUP2 EQ PUSH2 0x251C JUMPI PUSH1 0x0 DUP1 REVERT JUMPDEST POP JUMP JUMPDEST PUSH2 0x2528 DUP2 PUSH2 0x23D3 JUMP JUMPDEST DUP2 EQ PUSH2 0x2533 JUMPI PUSH1 0x0 DUP1 REVERT JUMPDEST POP JUMP JUMPDEST PUSH2 0x253F DUP2 PUSH2 0x2405 JUMP JUMPDEST DUP2 EQ PUSH2 0x254A JUMPI PUSH1 0x0 DUP1 REVERT JUMPDEST POP JUMP INVALID LOG2 PUSH5 0x6970667358 0x22 SLT KECCAK256 0xE7 CALLDATASIZE 0xE4 PUSH11 0x57BBF77877F005C1F3A891 CALLCODE 0xC7 0x2D PUSH27 0x2F101DE82C63FDA2ED61DEBC3E64736F6C63430006080033000000 "
    }
  },
  "interface": [
    {
      "anonymous": false,
      "inputs": [
        {
          "indexed": false,
          "internalType": "bytes32",
          "name": "questionKey",
          "type": "bytes32"
        },
        {
          "indexed": false,
          "internalType": "bytes32",
          "name": "answerKey",
          "type": "bytes32"
        }
      ],
      "name": "AnswerFalsified",
      "type": "event"
    },
    {
      "anonymous": false,
      "inputs": [
        {
          "indexed": false,
          "internalType": "bytes32",
          "name": "questionKey",
          "type": "bytes32"
        },
        {
          "indexed": false,
          "internalType": "bytes32",
          "name": "answerKey",
          "type": "bytes32"
        }
      ],
      "name": "NewAnswer",
      "type": "event"
    },
    {
      "anonymous": false,
      "inputs": [
        {
          "indexed": false,
          "internalType": "bytes32",
          "name": "questionKey",
          "type": "bytes32"
        },
        {
          "components": [
            {
              "internalType": "bool",
              "name": "temp",
              "type": "bool"
            }
          ],
          "indexed": false,
          "internalType": "struct Machine.Seed",
          "name": "seed",
          "type": "tuple"
        },
        {
          "indexed": false,
          "internalType": "address",
          "name": "asker",
          "type": "address"
        }
      ],
      "name": "NewQuestion",
      "type": "event"
    },
    {
      "anonymous": false,
      "inputs": [
        {
          "indexed": false,
          "internalType": "bytes32",
          "name": "questionKey",
          "type": "bytes32"
        },
        {
          "components": [
            {
              "internalType": "bool",
              "name": "temp",
              "type": "bool"
            }
          ],
          "indexed": false,
          "internalType": "struct Machine.Image",
          "name": "image",
          "type": "tuple"
        }
      ],
      "name": "QuestionResolvedSuccessfully",
      "type": "event"
    },
    {
      "anonymous": false,
      "inputs": [
        {
          "indexed": false,
          "internalType": "bytes32",
          "name": "questionKey",
          "type": "bytes32"
        }
      ],
      "name": "QuestionResolvedUnsuccessfully",
      "type": "event"
    },
    {
      "inputs": [],
      "name": "MAX_ANSWER_NUMBER",
      "outputs": [
        {
          "internalType": "uint256",
          "name": "",
          "type": "uint256"
        }
      ],
      "stateMutability": "view",
      "type": "function"
    },
    {
      "inputs": [],
      "name": "STAKE_SIZE",
      "outputs": [
        {
          "internalType": "uint256",
          "name": "",
          "type": "uint256"
        }
      ],
      "stateMutability": "view",
      "type": "function"
    },
    {
      "inputs": [
        {
          "internalType": "bytes32",
          "name": "questionKey",
          "type": "bytes32"
        },
        {
          "internalType": "bytes32",
          "name": "imageHash",
          "type": "bytes32"
        }
      ],
      "name": "answer",
      "outputs": [],
      "stateMutability": "payable",
      "type": "function"
    },
    {
      "inputs": [
        {
          "internalType": "bytes32",
          "name": "",
          "type": "bytes32"
        }
      ],
      "name": "answers",
      "outputs": [
        {
          "internalType": "address",
          "name": "answerer",
          "type": "address"
        },
        {
          "internalType": "bool",
          "name": "falsified",
          "type": "bool"
        },
        {
          "internalType": "bytes32",
          "name": "questionKey",
          "type": "bytes32"
        }
      ],
      "stateMutability": "view",
      "type": "function"
    },
    {
      "inputs": [
        {
          "components": [
            {
              "internalType": "bool",
              "name": "temp",
              "type": "bool"
            }
          ],
          "internalType": "struct Machine.Seed",
          "name": "seed",
          "type": "tuple"
        },
        {
          "internalType": "uint256",
          "name": "timeout",
          "type": "uint256"
        },
        {
          "internalType": "function (bytes32,struct Machine.Image) external",
          "name": "successCallback",
          "type": "function"
        },
        {
          "internalType": "function (bytes32) external",
          "name": "failCallback",
          "type": "function"
        }
      ],
      "name": "ask",
      "outputs": [],
      "stateMutability": "nonpayable",
      "type": "function"
    },
    {
      "inputs": [],
      "name": "court",
      "outputs": [
        {
          "internalType": "address",
          "name": "",
          "type": "address"
        }
      ],
      "stateMutability": "view",
      "type": "function"
    },
    {
      "inputs": [
        {
          "internalType": "bytes32",
          "name": "answerKey",
          "type": "bytes32"
        },
        {
          "internalType": "address",
          "name": "prosecutor",
          "type": "address"
        }
      ],
      "name": "falsify",
      "outputs": [],
      "stateMutability": "nonpayable",
      "type": "function"
    },
    {
      "inputs": [
        {
          "internalType": "bytes32",
          "name": "answerKey",
          "type": "bytes32"
        }
      ],
      "name": "getAnswer",
      "outputs": [
        {
          "components": [
            {
              "internalType": "address",
              "name": "answerer",
              "type": "address"
            },
            {
              "internalType": "bool",
              "name": "falsified",
              "type": "bool"
            },
            {
              "internalType": "bytes32",
              "name": "questionKey",
              "type": "bytes32"
            }
          ],
          "internalType": "struct IOracle.Answer",
          "name": "",
          "type": "tuple"
        }
      ],
      "stateMutability": "view",
      "type": "function"
    },
    {
      "inputs": [
        {
          "internalType": "bytes32",
          "name": "questionKey",
          "type": "bytes32"
        }
      ],
      "name": "getQuestion",
      "outputs": [
        {
          "components": [
            {
              "internalType": "uint256",
              "name": "askTime",
              "type": "uint256"
            },
            {
              "internalType": "uint256",
              "name": "timeout",
              "type": "uint256"
            },
            {
              "internalType": "bytes32[]",
              "name": "answerKeys",
              "type": "bytes32[]"
            },
            {
              "internalType": "function (bytes32,struct Machine.Image) external",
              "name": "successCallback",
              "type": "function"
            },
            {
              "internalType": "function (bytes32) external",
              "name": "failCallback",
              "type": "function"
            }
          ],
          "internalType": "struct IOracle.Question",
          "name": "",
          "type": "tuple"
        }
      ],
      "stateMutability": "view",
      "type": "function"
    },
    {
      "inputs": [
        {
          "internalType": "bytes32",
          "name": "",
          "type": "bytes32"
        }
      ],
      "name": "questions",
      "outputs": [
        {
          "internalType": "uint256",
          "name": "askTime",
          "type": "uint256"
        },
        {
          "internalType": "uint256",
          "name": "timeout",
          "type": "uint256"
        },
        {
          "internalType": "function (bytes32,struct Machine.Image) external",
          "name": "successCallback",
          "type": "function"
        },
        {
          "internalType": "function (bytes32) external",
          "name": "failCallback",
          "type": "function"
        }
      ],
      "stateMutability": "view",
      "type": "function"
    },
    {
      "inputs": [
        {
          "internalType": "bytes32",
          "name": "questionKey",
          "type": "bytes32"
        }
      ],
      "name": "resolveFail",
      "outputs": [],
      "stateMutability": "nonpayable",
      "type": "function"
    },
    {
      "inputs": [
        {
          "internalType": "bytes32",
          "name": "answerKey",
          "type": "bytes32"
        },
        {
          "components": [
            {
              "internalType": "bool",
              "name": "temp",
              "type": "bool"
            }
          ],
          "internalType": "struct Machine.Image",
          "name": "image",
          "type": "tuple"
        }
      ],
      "name": "resolveSuccess",
      "outputs": [],
      "stateMutability": "nonpayable",
      "type": "function"
    }
  ]
}